:030000000218CD16
:0800F800FFFF4457494E543547
:1018CD00759401759502758E0075930075C87075C8
:1018DD00C96075F800787FE4F6D8FD7581070219A7
:0118ED0029D1
:0C001600006400005A00002C20010BB810
:1018290078C77CAA7D017BFF7A0079167E007F024A
:101839001201D078C97CAA7D017BFF7A0079187ED4
:10184900007F021201D078CB7CAA7D017BFF7A0050
:10185900791A7E007F041201D078CF7CAA7D017BA2
:10186900FF7A00791E7E007F041201D07B017AAADB
:1018790079C790AB26E4F0A37402F07F107E501272
:10188900090B7B017AAA79C990AB26E4F0A374020B
:10189900F07F207E5012090B7B017AAA79CB90AB9D
:1018A90026E4F0A37404F07F807E0012090B7B010B
:1018B9007AAA79CF90AB26E4F0A37404F07F827EF4
:0418C9000002090B05
:10202F007F017E001214A5AA06A90790AAC4740105
:10203F00F0A3EAF0A3E9F01223157B017AA079B699
:10204F001221EC7B017AA479BD1221EC1200261229
:10205F001829122272120EEE12236C1223C21221B1
:03206F00B280F24A
:10221400E4FDFCC3ED9FEC9E5015E4FBFA0BBB0000
:0F222400010AEB640F4A70F50DBD00010C80E458
:012233002288
:10223400E4FDFCC3ED9FEC9E5015E4FBFA0BBB00E0
:0F224400010ABA1CF8BBE8F50DBD00010C80E4DF
:012253002268
:1022AB00E4F58E75C870F59375940175950275C933
:0722BB006075F901F5F8223E
:0C236000E4F5A8F5B8F59AF5A9F5B92246
:1022C20075F90175B70375BC03E4F5BDF5BEF5807C
:0722D200F590F5A0F5B02224
:03000300020006F2
:05000600C2AFD2AF32D1
:0300130002000EDA
:05000E00C2AFD2AF32C9
:10231500C2AF1223601222C21223CB120056D2AFD3
:012325002295
:0F0B580090AB23EBF0A3EAF0A3E9F0AD07AC06F6
:100B670090AB23E0FBA3E0FAA3E04A4B7003020D2E
:100B77009FA3E0FEA3E0FF4E7003020D9FEEC31399
:100B8700FEEF132DFFEE3CFED3EF94FEEE94FF40F5
:100B970003020D9FC2AFED5401FBECC313FCED1331
:100BA700FDAE047810CEC313CE13D8F9F5F1ECF5EA
:100BB700F2AF058FF3E4F5F875F401D2FF30FCFDD1
:100BC700D2FDEB6401707D90AB26E07004A3E06476
:100BD70001700AC2FBC2FAD2F9C2F88008C2FBC28E
:100BE700FAD2F9D2F8D2FE20FEFD90AB26E07004CF
:100BF700A3E0640190AB23701BE0FBA3E475F00155
:100C07001202DBA9F0FAE5FC12023C90AB27E024C4
:100C1700FF020D8FE0FBA3E475F0011202DBA9F0E0
:100C2700FAE5FC12023C90AB23E0FBA3E475F0016C
:100C37001202DBA9F0FAE5FD12023C90AB27E02493
:100C4700FE020D8F90AB26E0FEA3E0FF4E7003027D
:100C57000D9AC3EF9404EE94004003020D28EE7042
:100C670022EF14601614600D147018D2FBD2FAD25A
:100C7700F9C2F8800ED2FBD2FA8004D2FBC2FAC2C4
:100C8700F9C2F8D2FE20FEFD90AB26E0FEA3E0FFFE
:100C9700EE6003020D9AEF14607014604414600351
:100CA700020D9A90AB23E0FBA3E475F0011202DB7F
:100CB700A9F0FAE5FA12023C90AB23E0FBA3E47536
:100CC700F0011202DBA9F0FAE5FB12023C90AB231C
:100CD700E0FBA3E475F0011202DBA9F0FAE5FC8062
:100CE7003B90AB23E0FBA3E475F0011202DBA9F014
:100CF700FAE5FA12023C90AB23E0FBA3E475F0019E
:100D07001202DBA9F0FAE5FB801290AB23E0FBA30C
:100D1700E475F0011202DBA9F0FAE5FA12023C8051
:100D270072D2FBD2FAD2F9D2F8D2FE20FEFD90ABF6
:100D370023E0FBA3E475F0011202DBA9F0FAE5FA60
:100D470012023C90AB23E0FBA3E475F0011202DB37
:100D5700A9F0FAE5FB12023C90AB23E0FBA3E47594
:100D6700F0011202DBA9F0FAE5FC12023C90AB237A
:100D7700E0FBA3E475F0011202DBA9F0FAE5FD122E
:100D8700023C90AB27E024FCF090AB26E034FFF068
:080D9700020C4BE4F5F8D2AFA9
:010D9F002231
:0F090B0090AB23EBF0A3EAF0A3E9F0AD07AC0645
:10091A0090AB23E0FBA3E0FAA3E04A4B7003020B7F
:10092A0057A3E0FEA3E0FF4E7003020B57EEC3137A
:10093A00FEEF132DFFEE3CFED3EF94FEEE94FF4044
:10094A0003020B57C2AFED5401FBECC313FCED13CA
:10095A00FDAE047810CEC313CE13D8F9F5F1ECF539
:10096A00F2AF058FF3E4F5F875F401D2FF30FCFD20
:10097A00C2FDEB6401707C90AB26E0FEA3E0FF644D
:10098A00014E700AC2FBC2FAD2F9C2F88008C2FB51
:10099A00C2FAD2F9D2F8EF64014E90AB23701AE092
:1009AA00FBA3E475F0011202DBA9F0FA1201F6F5D5
:1009BA00FC90AB27E024FF802DE0FBA3E475F00157
:1009CA001202DBA9F0FA1201F6F5FC90AB23E0FB68
:1009DA00A3E475F0011202DBA9F0FA1201F6F5FDA3
:1009EA0090AB27E024FEF090AB26E034FFF0D2FE75
:1009FA0020FEFD90AB26E0FEA3E0FF4E7003020B43
:100A0A0052C3EF9404EE94004003020AE0EE70220F
:100A1A00EF14601614600D147018D2FBD2FAD2F9D2
:100A2A00C2F8800ED2FBD2FA8004D2FBC2FAC2F913
:100A3A00C2F890AB26E0FEA3E0FFEE6003020AD9FB
:100A4A00EF146076146047146003020AD990AB234E
:100A5A00E0FBA3E475F0011202DBA9F0FA1201F639
:100A6A00F5FA90AB23E0FBA3E475F0011202DBA9CF
:100A7A00F0FA1201F6F5FB90AB23E0FBA3E475F064
:100A8A00011202DBA9F0FA1201F6F5FC804190ABE3
:100A9A0023E0FBA3E475F0011202DBA9F0FA1201CC
:100AAA00F6F5FA90AB23E0FBA3E475F0011202DB42
:100ABA00A9F0FA1201F6F5FB801590AB23E0FBA32F
:100ACA00E475F0011202DBA9F0FA1201F6F5FAD286
:100ADA00FE30FE7480FBD2FBD2FAD2F9D2F890AB88
:100AEA0023E0FBA3E475F0011202DBA9F0FA12017C
:100AFA00F6F5FA90AB23E0FBA3E475F0011202DBF2
:100B0A00A9F0FA1201F6F5FB90AB23E0FBA3E4751A
:100B1A00F0011202DBA9F0FA1201F6F5FC90AB2300
:100B2A00E0FBA3E475F0011202DBA9F0FA1201F668
:100B3A00F5FDD2FE20FEFD90AB27E024FCF090AB41
:0D0B4A0026E034FFF00209FDE4F5F8D2AF1B
:010B5700227B
:10067B004180800042808200004180810042808462
:0C068B00000042808600004280880000D1
:10002E0043B71043C940E4908080F0908082F0A3E3
:10003E00F075D88075985053877F75BA0375AAE40A
:05004E00D29CD2AC229F
:0E233600908080E0640160F87401F08F9922BD
:1020720090AB13EBF0A3EAF0A3E9F090AB13E0FB13
:10208200A3E0FAA3E04A4B6027ED6024AF051DEF01
:10209200601E90AB13E0FBA3E0FAA3E0F91201F695
:1020A200FF12233690AB14E475F0011202C580DCF6
:0120B200220B
:03002300021B16A7
:101B1600C0E0C0F0C083C082C0D075D000C000C095
:0D1B260001C002C003C004C005C006C00716
:101B330090AB28E4F0C2AF30982DE599F07B017AA1
:101B4300A079B61223AEE4B5070DEEB404097B0108
:101B53007AA079B6121A8F7B017AA079B690AB2856
:101B6300E0FD121A03C298309907C299908080E46D
:031B7300F0D2AFFE
:101B7600D007D006D005D004D003D002D001D000C3
:0B1B8600D0D0D082D083D0F0D0E0326D
:1022540043B7C043C920E4908081F0908084F0A308
:0E226400F0759BD075BB03759DC8759A01225D
:0E234400908081E0640160F87401F08F9C22AB
:1020B30090AB98EBF0A3EAF0A3E9F090AB98E0FBC8
:1020C300A3E0FAA3E04A4B6027ED6024AF051DEFC0
:1020D300601E90AB98E0FBA3E0FAA3E0F91201F6CF
:1020E300FF12234490AB99E475F0011202C580DC22
:0120F30022CA
:03008300021E2D2D
:0F1E2D00C0E0C083C082C0D075D000C004C00721
:101E3C00C2AFE59B30E028AF9C908084E0FCA3E02F
:101E4C00242AF58274A03CF583EFF0908085E004A1
:101E5C00F07006908084E004F0539BFE539BFEE5EB
:101E6C009B30E10B539BFD539BFD908081E4F04331
:041E7C00C901D2AF17
:0D1E8000D007D004D0D0D082D083D0E03283
:10006E00E4908086F0A3F0759680759780F5D9752B
:05007E00E7E0D2BB2207
:0B2384008F9EE59630E0FB5396FE2292
:1020F40090AB9BEBF0A3EAF0A3E9F090AB9BE0FB81
:10210400A3E0FAA3E04A4B6027ED6024AF051DEF7E
:10211400601E90AB9BE0FBA3E0FAA3E0F91201F68A
:10212400FF12238490AB9CE475F0011202C580DC9D
:012134002288
:0300530002002286
:0100220032AB
:03005B00021C8103
:101C8100C0E0C0F0C083C082C0D075D000C000C029
:0D1C910001C002C003C004C005C006C007AA
:101C9E0090AB2CE4F0C2AFE59730E02EE59FF07BE1
:101CAE00017AA479BD1223AEE4B5070DEEB4040992
:101CBE007B017AA479BD121A8F7B017AA479BD902B
:0C1CCE00AB2CE0FD121A035397FED2AFBE
:101CDA00D007D006D005D004D003D002D001D0005E
:0B1CEA00D0D0D082D083D0F0D0E03208
:1022D900E4908088F0A3F075A78075AB80F5AE75A2
:0522E900AFE0D2BD22B0
:0B238F008FACE5A730E0FB53A7FE2257
:1021350090AB9EEBF0A3EAF0A3E9F090AB9EE0FB39
:10214500A3E0FAA3E04A4B6027ED6024AF051DEF3D
:10215500601E90AB9EE0FBA3E0FAA3E0F91201F646
:10216500FF12238F90AB9FE475F0011202C580DC4E
:012175002247
:030063000200593F
:010059003274
:03006B00021E8DE5
:0F1E8D00C0E0C083C082C0D075D000C004C007C1
:101E9C00C2AFE5AB30E038AFAD908088E0FCA3E09A
:101EAC002400F58274803CF583EFF0908089E00487
:101EBC00F07006908088E004F053ABFEC3908089EC
:101ECC00E09480908088E094004004E4F0A3F04318
:041EDC00C901D2AFB7
:0D1EE000D007D004D0D0D082D083D0E03223
:0623CB0012002E02006E5C
:1023260000000000000000000000000000000000A7
:1016D90090AACCEEF0A3EFF0A3ECF0A3EDF0A3EA0F
:0416E900F0A3EBF08F
:1016ED0078D27CAA7D017BFF7A2379267E007F0844
:1016FD001201D090AAD2745AF090AACCE0FCA3E0CB
:10170D00FDAE047810CEC313CE13D8F990AAD3F042
:10171D00ECA3F090AACCA3E090AAD5F090AACEE0CD
:10172D00FCA3E0FDEC90AAD6F0A3EDF090AAD0E0DA
:10173D00FCA3E0FDEC90AAD8F0A3EDF07B017AAA12
:10174D0079D290AB26E4F0A37408F0FF7E00120965
:10175D000B7F057E001222347B017AAA79D290ABE1
:10176D0026E4F0A304F07F087E00120B5890AAD255
:03177D00E070DE3B
:011780002246
:1017810090AB13EEF0A3EFF0A3ECF0A3EDF0A3EA1E
:04179100F0A3EBF0E6
:1017950078197CAB7D017BFF7A23792E7E007F084B
:1017A5001201D090AB1974A5F090AB13E0FCA3E047
:1017B500FDAE047810CEC313CE13D8F990AB1AF052
:1017C500ECA3F090AB13A3E090AB1CF090AB15E04D
:1017D500FCA3E0FDEC90AB1DF0A3EDF090AB17E0A2
:1017E500FCA3E0FDEC90AB1FF0A3EDF07B017AAB21
:1017F500791990AB26E4F0A37408F0FF7E00120976
:101805000B7F057E001222347B017AAB791990ABF0
:1018150026E4F0A304F07F087E00120B5890AB1964
:03182500E070DE92
:01182800229D
:1006970042AB7E000042AB80000042AB7C000042D0
:0406A700AB82000022
:0E235200438901758CBC758ACDD2A9D28C222C
:03000B00021EEDE5
:101EED00C0E0C083C082C0D0C2AF758CBC758ACD36
:101EFD0090AB7FE004F0700690AB7EE004F0D390E1
:101F0D00AB7FE094E890AB7EE094034020E4F0A337
:101F1D00F090AB81E004F0700690AB80E004F0909F
:101F2D00AB7DE004F0700690AB7CE004F043C9019A
:0B1F3D00D2AFD0D0D082D083D0E032F1
:1022EE0075C87075CD3C75CCAF75CBBC75CACD437A
:0522FE00A820D2C82257
:03002B00021DCBE8
:101DCB00C0E0C083C082C0D0C2C690AB83E004F039
:101DDB00700690AB82E004F090AB82E06403700479
:101DEB00A3E064E8703390AB90E004F0E0B43C09FE
:101DFB0090AB8FE004F0A3E4F090AB8FE0B43C0920
:101E0B0090AB8EE004F0A3E4F090AB8EE0B418023C
:101E1B00E4F090AB82E4F0A3F0D0D0D082D083D0AA
:021E2B00E032A3
:030056000222EE95
:1006AB006100A8C400C1814001C0804101C08041EC
:1006BB0000C1814001C0804100C1814000C1814027
:1006CB0001C0804101C0804100C1814000C1814017
:1006DB0001C0804100C1814001C0804101C0804107
:1006EB0000C1814001C0804100C1814000C18140F7
:1006FB0001C0804100C1814001C0804101C08041E7
:10070B0000C1814000C1814001C0804101C08041D6
:10071B0000C1814001C0804100C1814000C18140C6
:10072B0001C0804101C0804100C1814000C18140B6
:10073B0001C0804100C1814001C0804101C08041A6
:10074B0000C1814000C1814001C0804101C0804196
:10075B0000C1814001C0804100C1814000C1814086
:10076B0001C0804100C1814001C0804101C0804176
:10077B0000C1814001C0804100C1814000C1814066
:10078B0001C0804101C0804100C1814000C1814056
:10079B0001C0804100C1814001C0804101C0804146
:1007AB0000C181406100A9C400C0C101C30302C2E2
:1007BB00C60607C705C5C404CC0C0DCD0FCFCE0E96
:1007CB000ACACB0BC90908C8D81819D91BDBDA1A06
:1007DB001EDEDF1FDD1D1CDC14D4D515D71716D676
:1007EB00D21213D311D1D010F03031F133F3F232E6
:1007FB0036F6F737F53534F43CFCFD3DFF3F3EFE56
:10080B00FA3A3BFB39F9F83828E8E929EB2B2AEAC5
:10081B00EE2E2FEF2DEDEC2CE42425E527E7E62635
:10082B0022E2E323E12120E0A06061A163A3A262A5
:10083B0066A6A767A56564A46CACAD6DAF6F6EAE15
:10084B00AA6A6BAB69A9A86878B8B979BB7B7ABA85
:10085B00BE7E7FBF7DBDBC7CB47475B577B7B676F5
:10086B0072B2B373B17170B0509091519353529265
:10087B0096565797559594549C5C5D9D5F9F9E5ED5
:10088B005A9A9B5B99595898884849894B8B8A4A45
:10089B004E8E8F4F8D4D4C8C4484854587474686B5
:0808AB00824243834181804039
:101F480090AB93EBF0A3EAF0A3E9F0A3ECF0A3EDD8
:011F5800F098
:101F59007FFF7DFF90AB9674FFF5F01202DB45F031
:101F6900603190AB93E0FBA3E475F0011202DBA9A9
:101F7900F0FA1201F66DFB7A0024C4F582EA34A85E
:101F8900F583E06FFD74C42BF582EA34A9F583E08B
:071F9900FF80C1EFFEEDFF28
:011FA000221E
:1021EC001201F664016020900003E4F5F01203760E
:1021FC00900005E4F5F0120376900001E4F5F0127E
:08220C000376740112023C226A
:0B1A8F0090AB2DEBF0A3EAF0A3E9F010
:101A9A009000011202F145F070037FFF2290AB2DF6
:101AAA00E0FBA3E0FAA3E0F99000051202F1FFE9D6
:101ABA002407F9E43AFAE92FF9EA35F0FA1201F6BD
:101ACA00FF90AB2DA3E0FAA3E0F9900005E475F0CE
:101ADA00011203299000051202F1B40019E5F0B4CD
:101AEA00041490AB2DE0FBA3E0FAA3E0F990000503
:101AFA00E4F5F012037690AB2DE0FBA3E0FAA3E045
:0B1B0A00F990000174FFF5F0120329B0
:011B150022AD
:101A030090AB2DEBF0A3EAF0A3E9F090AB2DE0FB54
:101A1300A3E0FAA3E0F99000011202F17004E5F0EB
:101A230064046067AF059000031202F1FDE9240727
:101A3300F9E43AFAE92DF9EA35F0FAEF12023C90AB
:101A4300AB2DE0FBA3E0FAA3E0F9900003E475F00B
:101A5300011203299000031202F1B40019E5F0B456
:101A6300041490AB2DE0FBA3E0FAA3E0F99000038C
:101A7300E4F5F012037690AB2DE0FBA3E0FAA3E0CC
:0C1A8300F9900001E475F0011203292223
:10230300E92407F9E43AFAE92DF9EA3CFA1201F66D
:02231300FF22A7
:10229000900003E4F5F0120376900005E4F5F012E7
:0B22A0000376900001E4F5F0020376E5
:0A239A009000051202F1FFAEF022E0
:0A23A4009000031202F1FFAEF022D8
:0A23AE009000011202F1FFAEF022D0
:0C23780000000000640417705A00002CE4
:1008B30043AB8E00000042AB8C000041AB92004181
:0308C300AB9101F5
:0C236C001223D7EF64016003121B9122C2
:100EEE001223D7EF60077FC87E00122234120DA0A6
:100EFE0090AAC7EEF0A3EFF01223D7EF60337B0179
:100F0E007AA079B61223AE90AB4EE0FDC3EF9DEE04
:100F1E009400501D7B017AAB7930E012207290ABB9
:100F2E0050E004F0E0D394054007E490AB4FF0A3FB
:100F3E00F090AAC7E0F47003A3E0F46003020FDAA6
:100F4E007B017AA079B61223AE90AAC9EEF0A3EF78
:100F5E00F0C39408EE940050030210327F327E00EC
:100F6E001222347B017AA079B61223AE90AAC9E080
:0B0F7E006E7003A3E06F6003021032EE
:100F890090AACBF0A3F090AAC9E0FEA3E0FFC3901A
:100F9900AACCE09F90AACBE09E502B7B017AA07946
:100FA900B6121A8F90AACBE0FCA3E024CDF5827487
:100FB900AA3CF583EFF090AACCE004F070C890AA9F
:0F0FC900CBE004F080C07B017AAA79CD90AAC951
:020FD800805047
:100FDA00E490AAC9F0A3F090AAC7E0FEA3E0FFC379
:100FEA0090AACAE09F90AAC9E09E502B7B017AA0E2
:100FFA0079B6121A8F90AAC9E0FCA3E024CBF58235
:10100A0074AA3CF583EFF090AACAE004F070C89085
:10101A00AAC9E004F080C07B017AAA79CB90AAC75A
:08102A00E0FCA3E0FD1203D07D
:01103200229B
:1015760078C77CAA7D017BFF7A2379787E007F027B
:101586001201D07B027A007D007C51E4FFFE121628
:10159600D97B017AAA79C790AB26E4F0A37402F04E
:1015A6007F007E51120B5890AAC7E0FFC413131395
:1015B600540190AAC9F0EF547FFFA3F090AAC8E0A7
:1015C60090AACBF0FDEFFEEDFBAA067C007D0AFF9C
:1015D60012027090AACAEFF0AE02AF037C007D0A39
:1015E600120270A3EDF07B017AAA79C990AB26E4CA
:1015F600F0A304F07F107E5112090B7B017AAA79C1
:10160600CA90AB26E4F0A304F07F207E5112090BAA
:101616007B017AAA79CB90AB26E4F0A304F07F3065
:051626007E5102090BDA
:1000860078C77CAA7D017BFF7A23797A7E007F027E
:100096001201D07B027A007D007C527F027E001224
:1000A60016D97B017AAA79C790AB26E4F0A374022D
:1000B600F07F007E52120B5890AAC7E090AAC9F0B2
:1000C60090AAC8E090AACAF07B017AAA79C990AB37
:1000D60026E4F0A304F07F107E5212090B7B017A0E
:1000E600AA79CA90AB26E4F0A304F07F207E5202E0
:0200F600090BF4
:0623D100121576020086E1
:050026007F0102139EA2
:101D660078C97CAA7D017BFF7A23797C7E007F047B
:101D76001201D07B017AAA79C790AB26E4F0A3744E
:101D860002F07F107E50120B5890AAC8E0FF603414
:101D960090AB92E0FEEF6E602BEFF090AAC9F07B5D
:101DA600017AAA79C990AB26E4F0A37404F07F8285
:101DB6007E0012090B7B027A007D107C507F067E26
:041DC600001217816F
:011DCA0022F6
:101CF50078C97CAA7D017BFF7A2379807E007F04E9
:101D05001201D07B017AAA79C790AB26E4F0A374BF
:101D150002F07F207E50120B5890AAC8E0FF90ABCE
:101D250091E0FEEF6E6039EFF0700690AACC742456
:101D3500F0EFB4010690AACC742CF07B017AAA7955
:101D4500C990AB26E4F0A37404F07F807E001209ED
:101D55000B7B027A007D207C507F087E0012178164
:011D6500225B
:1021B20090AB8EE090AAC7F090AB8FE090AAC8F0E7
:1021C2007B017AAA79C790AB26E4F0A304F07F10D2
:1021D2007E5312090B7B017AAA79C890AB26E4F0F0
:0A21E200A304F07F207E5302090BD6
:0923C2001223D1121D66021CF564
:102272007B027A007D107C507F067E001216D97B8D
:0E228200027A007D207C507F087E000216D973
:0B1FA10090AAE9EBF0A3EAF0A3E9F03E
:101FAC00E4FFFED390AAF0E09F90AAEFE09E402DB4
:101FBC0090AAECE0FBA3E0FAA3E0F98F828E8312E7
:101FCC00020FFD90AAE9E0FBA3E0FAA3E0F98F82EF
:0D1FDC008E83ED12024E0FBF00010E80C675
:011FE90022D5
:10196E000000000000000000000000000000000069
:10197E000000000000000000000000000000000059
:10198E000000000000000000000000000000000049
:10199E000000000000000000000000000000000039
:1019AE000000000000000000000000000000000029
:1019BE000000000000000000000000000000000019
:1019CE000000000000000000000000000000000009
:1019DE0000000000000000000000000000000000F9
:1019EE0000000000000000000000000000000000E9
:0519FE000000000000E4
:1008C60042AB55000042AB57000042AB510000421C
:1008D600AB5300006021AB300000000000000000B8
:1008E6000000000000000000000000000000000002
:0908F600000000000000000000F9
:0B1FEA0090AB18EBF0A3EAF0A3E9F0C5
:101FF500E4FEA3F0A3F07F0290AB18E0FBA3E0FAA8
:10200500A3E0F98F828E8312020FFD90AB1CE02DA9
:10201500F090AB1BE03400F00FBF00010EEF64073A
:092025004E70D590AB1BA3E0FF47
:01202E00228F
:0623D70090AB4FE0FF2275
:08116D0090AAC7EFF0A3EDF01A
:1011750078C97CAA7D017BFF7A19796E7E007F1E76
:101185001201D0E490AAE7F0A3F090AAC974AAF0DE
:1011950090AAE8E004F0700690AAE7E004F090AAAF
:1011A500CA74AAF090AAE8E004F0700690AAE7E0F5
:1011B50004F090AACB74FAF090AAE8E004F0700667
:1011C50090AAE7E004F090AAC8E090AACCF090AA13
:1011D500E8E004F0700690AAE7E004F090AACD7468
:1011E50020F090AAE8E004F0700690AAE7E004F089
:1011F500E490AACEF090AAE8E004F0700690AAE781
:10120500E004F090AACF7401F090AAE8E004F07031
:101215000690AAE7E004F090AAC7E090AAD0F09063
:10122500AAE8E004F0700690AAE7E004F07B017AF2
:10123500AA79C9121FEA90AAD1EFF090AAE8E004B2
:10124500F0700690AAE7E004F090AAEC7401F0A310
:1012550074AAF0A374C9F090AAE7E0FFA3E090AAEE
:10126500EFCFF0A3EFF07B017AAB7930121FA1909D
:10127500AAE7A3E090AB4EF090AAC8E090AB4FF080
:0E1285007B017AAB793090AB4EE0FD02207217
:0A23B80090000112020FFF02116DE8
:101B91007B017AAB795190AB26E4F0A37402F07F1C
:101BA100007E50120B5890AB52E060217B017AAB62
:101BB10079517D011223B87B017AAB795590AB261F
:101BC100E4F0A37402F07F007E5012090B7B017ACE
:101BD100AB795390AB26E4F0A37402F07F007E60F2
:101BE100120B5890AB53E07004A3E0601B7F01120D
:101BF10012937B017AAB795590AB26E4F0A3740282
:091C0100F07F007E6012090B2245
:100DA000E490AAEBF0A3F0A3F0A3F07B017AA07982
:100DB000B612239A90AAF5EEF0A3EFF07B017AA089
:100DC00079B61223AE90AAEBE0FCA3E0D39FEC9E91
:100DD0004003020EE990AAF5E0FAA3E0FB90AAED29
:100DE000E0FCA3E0FDEB2DFFEA3CFEA3F0A3EFF057
:100DF0002401FFE43EA3F0A3EFF0EB2DFFEA3CCF8C
:100E00002402CF3400A3F0A3EFF090AAEFE0FEA3FA
:100E1000E0D394FFEE9403400BE02400F090AAEF9F
:100E2000E034FCF090AAF1E0FEA3E0D394FFEE944E
:100E300003400BE02400F090AAF1E034FCF090AA0B
:100E4000EFE0FCA3E0FDD394FFEC9403400E90AAE6
:100E5000F4E02400F090AAF3E034FCF07B017AA0E7
:100E600079B6122303EF64AA70497B017AA079B6A0
:100E700090AAF1E0FCA3E0FD122303EF64AA703313
:100E80007B017AA079B690AAF3E0FCA3E0FD1223DF
:100E900003BFFA1F90AAF5E0FEA3E0FF90AAEFE0DF
:100EA000FCA3E06F7002EC6E600990AAEDE0FEA377
:100EB000E0FF2290AAEEE004F0700690AAEDE004B4
:100EC000F090AAECE004F0700690AAEBE004F09039
:100ED000AAEDE0FEA3E07003EE64046003020DBC23
:0D0EE00090AAEDF0A3F0020DBC7EFF7FFF95
:010EED0022E2
:101C0A0090AAEBE0FBA3E0FAA3E0F9A3E0FCA3E0CF
:011C1A00FDCC
:101C1B0090AB16ECF0A3EDF090AB13EBF0A3EAF066
:101C2B00A3E9F01201F664AA704890AB13E0FBA392
:101C3B00E0FAA3E0F990000112020F64AA7033904E
:101C4B00000212020FB4F52A121FEA90AB13E0FB4D
:101C5B00A3E0FAA3E0F990AB17E024FFFD90AB16DD
:101C6B00E034FF8D82F58312020FB507057E007FEE
:061C7B000122E4FEFF223D
:0B162B0090AB13EBF0A3EAF0A3E9F092
:10163600E490AB1BF0A3F090AB16E0FBA3E0FAA39B
:10164600E0F990000612020FFF90AB13E0FBA3E057
:10165600FAA3E0F9EF12023C90AB19E4F0A3740789
:10166600F090AB16E0FBA3E0FAA3E0F990000612B7
:10167600020F2407FFE433FE90AB19E0FCA3E0FD64
:10168600C39FEE6480F8EC64809850468D828C830C
:1016960012020FFF90AB13E0FBA3E0FAA3E02401D4
:1016A600F9E43AFA90AB1BE0FCA3E029F9EA3CFA2C
:1016B600EF12023C90AB1CE004F0700690AB1BE00E
:1016C60004F090AB1AE004F0709790AB19E004F0C8
:0216D600808F03
:0116D80022EF
:1003D00090AAEEECF0A3EDF090AAEBEBF0A3EAF01C
:0303E000A3E9F09E
:1003E30090000412020FFE90000512020FFDEDFFB4
:1003F30090AAF0EEF0A3EFF078F27CAA7D017BFFE8
:100403007A19798C7E007F171201D01223D7EF70EF
:04041300030204AE2E
:1004170090AB34E0FEA3E0FDEDFF90AB09EEF0A357
:10042700EFF0121C0AEF4E701F7B017AAB79309008
:10043700AB4EE0FD12207290AB50E004F0E0D39495
:1004470005500302067A805790AAF0E0FEA3E0FF6A
:1004570090AB09E0B5062BA3E0B5072690AAEBE021
:10046700FBA3E0FAA3E0F990000312020F701390C8
:10047700AB4EE0FF90AAEEE0B40007A3E0B5070299
:10048700801D7B017AAB793090AB4EE0FD12207274
:1004970090AB50E004F0E0D39405500302067AE4F1
:0704A70090AB4FF0A3F0221F
:1004AE0078097CAB7D017BFF7A1979A37E007F02F0
:1004BE001201D0780D7CAB7D017BFF7A1979A57E78
:1004CE00007F021201D078117CAB7D017BFF7A197F
:1004DE0079A77E007F021201D0121C0AEF4E700324
:1004EE0002067A90AAEBE0FBA3E0FAA3E0F99000F3
:1004FE000312020F6401703B90000274FA12024E56
:10050E00900003E412024E121FEA90AAEBE0FBA346
:10051E00E0FAA3E0F990AAEFE024FFFD90AAEEE046
:10052E0034FF8D82F583EF12024E90AAEEA3E0FD0A
:10053E0012207290AAEBE0F9A3E0FAA3E090AB16BA
:10054E00C9F0A3EAF0A3E9F07B017AAA79F21216B8
:10055E002B90AAF0E0FEA3E08EF01203A305772005
:10056E0010060320200000067A90AAF5E0FEA3E014
:10057E00FDEDFF90AB0FEEF0A3EFF090AAF3E0903D
:10058E00AB0DF090AAF4E090AB0EF0A3E0FAA3E06E
:10059E00FB7C007D0AFFAE02120270A3EFF07C001E
:1005AE007D0AAF03AE02120270A3EDF07B017AABAF
:1005BE00790D90AB26E4F0A37402F07F007E511209
:1005CE00090B7B027A007D007C51E4FFFE1217813D
:1005DE007B017AAB791190AB26E4F0A37402F07F25
:1005EE00007E5212090B7B027A007D007C527F0244
:1005FE007E0002178190AAF3E090AB09F090AAF466
:10060E00E090AB0AF07B017AAB790990AB26E4F06F
:10061E00A37402F07F007E5312090B7B027A007DD9
:10062E00007C537F047E0012178190AB09E090ABE3
:10063E000BF090AB8EF090AB0AE090AB0CF090AB61
:10064E008FF07B017AAB790B90AB26E4F0A304F02C
:10065E007F107E5312090B7B017AAB790C90AB267F
:0C066E00E4F0A304F07F207E5312090B7F
:01067A00225D
:0512930090AAC7EFF076
:1012980078C87CAA7D017BFF7A1979A97E007F1E18
:1012A8001201D0E490AAE6F0A3F090AAC874AAF0BC
:1012B80090AAE7E004F0700690AAE6E004F090AA8D
:1012C800C974AAF090AAE7E004F0700690AAE6E0D4
:1012D80004F090AACA74FAF090AAE7E004F0700645
:1012E80090AAE6E004F090AAC7E090AACBF090AAF2
:1012F800E7E004F0700690AAE6E004F0E490AACCD7
:10130800F090AAE7E004F0700690AAE6E004F0E4A2
:1013180090AACDF090AAE7E004F0700690AAE6E063
:1013280004F0E490AACEF090AAE7E004F0700690EA
:10133800AAE6E004F07B017AAA79C8121FEA90AA0B
:10134800CFEFF090AAE7E004F0700690AAE6E00478
:10135800F090AAEC7401F0A374AAF0A374C8F090FA
:10136800AAE6E0FFA3E090AAEFCFF0A3EFF07B019D
:101378007AAB7930121FA190AAE6A3E090AB4EF0A9
:1013880090AAC7E090AB4FF07B017AAB793090AB75
:061398004EE0FD02207290
:0B10330090AB59EFF0A3EDF0A3EBF041
:10103E00785C7CAB7D017BFF7A1979C77E007F1EC1
:10104E001201D0E490AB7AF0A3F090AB5C74AAF0EE
:10105E0090AB7BE004F0700690AB7AE004F090ABBE
:10106E005D74AAF090AB7BE004F0700690AB7AE072
:10107E0004F090AB5E74FAF090AB7BE004F0700677
:10108E0090AB7AE004F090AB5BE090AB5FF090AB8E
:10109E007BE004F0700690AB7AE004F090AB6074E5
:1010AE0010F090AB7BE004F0700690AB7AE004F0A9
:1010BE00E490AB61F090AB7BE004F0700690AB7AFD
:1010CE00E004F090AB627402F090AB7BE004F07041
:1010DE000690AB7AE004F090AB59E090AB63F090E1
:1010EE00AB7BE004F0700690AB7AE004F090AB5A64
:1010FE00E090AB64F090AB7BE004F0700690AB7ABE
:10110E00E004F07B017AAB795C121FEA90AB65EFDD
:10111E00F090AB7BE004F0700690AB7AE004F090B8
:10112E00AAEC7401F0A374ABF0A3745CF090AB7AEC
:10113E00E0FFA3E090AAEFCFF0A3EFF07B017AAB34
:10114E007930121FA190AB7AA3E090AB4EF0A3744E
:0F115E0001F0FB7AAB793090AB4EE0FD022072CE
:05139E0090AAC7EFF06A
:1013A30078C87CAA7D017BFF7A1979E57E007F1ED0
:1013B3001201D0E490AAE6F0A3F090AAC874AAF0B0
:1013C30090AAE7E004F0700690AAE6E004F090AA81
:1013D300C974AAF090AAE7E004F0700690AAE6E0C8
:1013E30004F090AACA74FAF090AAE7E004F0700639
:1013F30090AAE6E004F090AAC7E090AACBF090AAE6
:10140300E7E004F0700690AAE6E004F0E490AACCCA
:10141300F090AAE7E004F0700690AAE6E004F090EA
:10142300AACD7410F090AAE7E004F0700690AAE643
:10143300E004F0E490AACEF090AAE7E004F070068E
:1014430090AAE6E004F07B017AAA79C8121FEA9019
:10145300AACFEFF090AAE7E004F0700690AAE6E0C6
:1014630004F090AAEC7401F0A374AAF0A374C8F07A
:1014730090AAE6E0FFA3E090AAEFCFF0A3EFF07B02
:10148300017AAB7930121FA190AAE6A3E090AB4E8C
:10149300F0A37401F0FB7AAB793090AB4EE0FD0220
:0214A3002072B5
:1018EE0002202FE493A3F8E493A34003F68001F2C1
:1018FE0008DFF48029E493A3F85407240CC8C333FB
:10190E00C4540F4420C8834004F456800146F6DFC9
:10191E00E4800B010204081020408090067BE47ED8
:10192E00019360BCA3FF543F30E509541FFEE493BE
:10193E00A360010ECF54C025E060A840B8E493A385
:10194E00FAE493A3F8E493A3C8C582C8CAC583CAB0
:10195E00F0A3C8C582C8CAC583CADFE9DEE780BE68
:0108FF0000F8
:10010000E709F608DFFA8046E709F208DFFA803EE1
:1001100088828C83E709F0A3DFFA8032E309F608CE
:10012000DFFA8078E309F208DFFA807088828C8336
:10013000E309F0A3DFFA806489828A83E0A3F608EA
:10014000DFFA805889828A83E0A3F208DFFA804CC4
:1001500080D280FA80C680D4806980F2803380109B
:1001600080A680EA809A80A880DA80E280CA803304
:1001700089828A83ECFAE493A3C8C582C8CCC5837C
:10018000CCF0A3C8C582C8CCC583CCDFE9DEE7804C
:100190000D89828A83E493A3F608DFF9ECFAA9F0CB
:1001A000EDFB2289828A83ECFAE0A3C8C582C8CC21
:1001B000C583CCF0A3C8C582C8CCC583CCDFEADE3A
:1001C000E880DB89828A83E493A3F208DFF980CC9C
:1001D00088F0EF60010E4E60C388F0ED2402B40495
:1001E0000050B9F582EB2402B4040050AF2323453C
:0601F00082239001507310
:1001F600BB010689828A83E0225002E722BBFE0207
:09020600E32289828A83E4932239
:10020F00BB010CE58229F582E5833AF583E02250A4
:10021F0006E92582F8E622BBFE06E92582F8E222EE
:0D022F00E58229F582E5833AF583E4932208
:10023C00BB010689828A83F0225002F722BBFE01A1
:02024C00F3229B
:10024E00F8BB010DE58229F582E5833AF583E8F0E6
:10025E00225006E92582C8F622BBFE05E92582C892
:02026E00F2227A
:10027000BC000BBE0029EF8DF084FFADF022E4CC72
:10028000F875F008EF2FFFEE33FEEC33FCEE9DEC3B
:10029000984005FCEE9DFE0FD5F0E9E4CEFD22ED81
:1002A000F8F5F0EE8420D21CFEADF075F008EF2FCB
:1002B000FFED33FD4007985006D5F0F222C398FDBC
:0502C0000FD5F0EA2259
:1002C500C5F0F8A3E028F0C5F0F8E58215827002C4
:0602D5001583E038F02261
:1002DB00A3F8E0C5F025F0F0E582158270021583D6
:0602EB00E0C838F0E82233
:1002F100BB0110E58229F582E5833AF583E0F5F04B
:10030100A3E0225009E92582F886F008E622BBFE27
:100311000AE92582F8E2F5F008E222E5832AF5836D
:08032100E993F5F0A3E9932232
:10032900BB010DC58229C582C5833AC5830202C5B1
:100339005011C58229F808E5F026F618F5F0E5828E
:1003490036F622BBFE11C58229F808E225F0F5F040
:10035900F218E23582F222F8E58229F582E5832A4C
:0D036900F58374019325F0F5F0E49338223C
:10037600F8BB0111E58229F582E5833AF583E8F0B9
:10038600E5F0A3F0225009E92582C8F608A6F02276
:0D039600BBFE09E92582C8F2E5F008F2225D
:1003A300D083D082F8E4937012740193700DA3A3E9
:1003B30093F8740193F5828883E473740293B5F020
:0D03C300067403936860E9A3A3A3A380D888
:1014A50090AAC7EEF0A3EFF0A374ABF0A37484F099
:1014B50090AAC9E0FEA3E0F5828E83E0FEA3E0FFDB
:1014C5004E7003FEFF228F828E83A3A3E0FCA3E070
:1014D500FD90AAC7E0FAA3E0FBC3ED9BEC9A500A86
:1014E50090AAC9EEF0A3EFF080C68F828E83A3A3E6
:1014F500E0FCA3E0C39BFDEC9AFC90AACBF0A3ED26
:10150500F0C39410EC940050178F828E83E0FCA3F7
:10151500E0FD90AAC9E0FAA3E0F5828A83EC804554
:1015250090AACCE024FCF090AACBE034FFF0E0FDDB
:10153500A3E08F828E83A3A3CDF0A3EDF0EF240467
:10154500FFE43EFE90AACCE02FFF90AACBE03EFE42
:1015550090AAC9F0A3EFF090AAC7E0FDA3E08F829F
:101565008E83A3A3CDF0A3EDF0EF2404FFE43EFEAC
:011575002253
:0B09000048AB84000000000000000075
:10217600EF4E7008FE7F01ED1D70011C90AB84EEE2
:10218600F0A3EFF0A3ECF0A3EDF090AB84E0FEA398
:10219600E0FFF5828E83E4F0A3F0ED24FCFDEC3441
:0C21A600FF8F828E83A3A3F0A3EDF02234
:00000001FF
