:03000000020FE20A
:0800F800FFFF4457494E543547
:100FE200759401759502758E0075930075C87075BC
:100FF200C96075F800787FE4F6D8FD7581070210A4
:011002003EAF
:1016C8001216D9121634120CF512175A12179D80D9
:0116D800F51C
:1015F400E4FDFCC3ED9FEC9E5015E4FBFA0BBB002D
:0F160400010AEB640F4A70F50DBD00010C80E484
:0116130022B4
:10161400E4FDFCC3ED9FEC9E5015E4FBFA0BBB000C
:0F162400010ABA1CF8BBE8F50DBD00010C80E40B
:011633002294
:10167100E4F58E75C870F59375940175950275C979
:071681006075F901F5F82284
:0C174E00E4F5A8F5B8F59AF5A9F5B92264
:1016880075F90175B70375BC03E4F5BDF5BEF580C2
:07169800F590F5A0F5B0226A
:03000300020006F2
:05000600C2AFD2AF32D1
:0300130002000EDA
:05000E00C2AFD2AF32C9
:1016D900C2AF12174E121688120056120061D2AF0D
:0116E90022DE
:0F05B40090AB87EBF0A3EAF0A3E9F0AD07AC063C
:1005C30090AB87E0FBA3E0FAA3E04A4B700302077A
:1005D300FBA3E0FEA3E0FF4E70030207FBEEC31391
:1005E300FEEF132DFFEE3CFED3EF94FEEE94FF409F
:1005F300030207FBC2AFED5401FBECC313FCED1385
:10060300FDAE047810CEC313CE13D8F9F5F1ECF593
:10061300F2AF058FF3E4F5F875F401D2FF30FCFD7A
:10062300D2FDEB6401707D90AB8AE07004A3E064BB
:1006330001700AC2FBC2FAD2F9C2F88008C2FBC237
:10064300FAD2F9D2F8D2FE20FEFD90AB8AE0700414
:10065300A3E0640190AB87701BE0FBA3E475F0019A
:10066300120B7DA9F0FAE5FC120B3390AB8BE0245F
:10067300FF0207EBE0FBA3E475F001120B7DA9F089
:10068300FAE5FC120B3390AB87E0FBA3E475F001B2
:10069300120B7DA9F0FAE5FD120B3390AB8BE0242E
:1006A300FE0207EB90AB8AE0FEA3E0FF4E7003026D
:1006B30007F6C3EF9404EE94004003020784EE7040
:1006C30022EF14601614600D147018D2FBD2FAD204
:1006D300F9C2F8800ED2FBD2FA8004D2FBC2FAC26E
:1006E300F9C2F8D2FE20FEFD90AB8AE0FEA3E0FF44
:1006F300EE60030207F6EF146070146044146003A5
:100703000207F690AB87E0FBA3E475F001120B7DC3
:10071300A9F0FAE5FA120B3390AB87E0FBA3E4757B
:10072300F001120B7DA9F0FAE5FB120B3390AB87B6
:10073300E0FBA3E475F001120B7DA9F0FAE5FC8060
:100743003B90AB87E0FBA3E475F001120B7DA9F0AE
:10075300FAE5FA120B3390AB87E0FBA3E475F001E3
:10076300120B7DA9F0FAE5FB801290AB87E0FBA3A7
:10077300E475F001120B7DA9F0FAE5FA120B338050
:1007830072D2FBD2FAD2F9D2F8D2FE20FEFD90ABA0
:1007930087E0FBA3E475F001120B7DA9F0FAE5FAFB
:1007A300120B3390AB87E0FBA3E475F001120B7DD2
:1007B300A9F0FAE5FB120B3390AB87E0FBA3E475DA
:1007C300F001120B7DA9F0FAE5FC120B3390AB8715
:1007D300E0FBA3E475F001120B7DA9F0FAE5FD122D
:1007E3000B3390AB8BE024FCF090AB8AE034FFF04A
:0807F3000206A7E4F5F8D2AFFD
:0107FB0022DB
:0F03670090AB87EBF0A3EAF0A3E9F0AD07AC068B
:1003760090AB87E0FBA3E0FAA3E04A4B70030205CB
:10038600B3A3E0FEA3E0FF4E70030205B3EEC31372
:10039600FEEF132DFFEE3CFED3EF94FEEE94FF40EE
:1003A600030205B3C2AFED5401FBECC313FCED131E
:1003B600FDAE047810CEC313CE13D8F9F5F1ECF5E3
:1003C600F2AF058FF3E4F5F875F401D2FF30FCFDCA
:1003D600C2FDEB6401707C90AB8AE0FEA3E0FF6493
:1003E600014E700AC2FBC2FAD2F9C2F88008C2FBFB
:1003F600C2FAD2F9D2F8EF64014E90AB87701AE0D8
:10040600FBA3E475F001120B7DA9F0FA120AEDF5D3
:10041600FC90AB8BE024FF802DE0FBA3E475F0019C
:10042600120B7DA9F0FA120AEDF5FC90AB87E0FB02
:10043600A3E475F001120B7DA9F0FA120AEDF5FDA1
:1004460090AB8BE024FEF090AB8AE034FFF0D2FE56
:1004560020FEFD90AB8AE0FEA3E0FF4E700302058E
:10046600AEC3EF9404EE9400400302053CEE702206
:10047600EF14601614600D147018D2FBD2FAD2F97C
:10048600C2F8800ED2FBD2FA8004D2FBC2FAC2F9BD
:10049600C2F890AB8AE0FEA3E0FFEE6003020535EA
:1004A600EF14607614604714600302053590AB873D
:1004B600E0FBA3E475F001120B7DA9F0FA120AED38
:1004C600F5FA90AB87E0FBA3E475F001120B7DA96A
:1004D600F0FA120AEDF5FB90AB87E0FBA3E475F0AA
:1004E60001120B7DA9F0FA120AEDF5FC804190ABE2
:1004F60087E0FBA3E475F001120B7DA9F0FA120A5E
:10050600EDF5FA90AB87E0FBA3E475F001120B7DE5
:10051600A9F0FA120AEDF5FB801590AB87E0FBA374
:10052600E475F001120B7DA9F0FA120AEDF5FAD284
:10053600FE30FE7480FBD2FBD2FAD2F9D2F890AB31
:1005460087E0FBA3E475F001120B7DA9F0FA120A0D
:10055600EDF5FA90AB87E0FBA3E475F001120B7D95
:10056600A9F0FA120AEDF5FB90AB87E0FBA3E47560
:10057600F001120B7DA9F0FA120AEDF5FC90AB879B
:10058600E0FBA3E475F001120B7DA9F0FA120AED67
:10059600F5FDD2FE20FEFD90AB8BE024FCF090AB87
:0D05A6008AE034FFF0020459E4F5F8D2AF0A
:0105B3002225
:1001000041808000428082000041808100428084E2
:0C01100000004280860000428088000051
:10002E0043B71043C940E4908080F0908082F0A3E3
:10003E00F075D88075985053877F75BA0375AAE40A
:05004E00D29CD2AC229F
:0E16FA00908080E0640160F87401F08F992206
:1014700090AB77EBF0A3EAF0A3E9F090AB77E0FB59
:10148000A3E0FAA3E04A4B6027ED6024AF051DEF0F
:10149000601E90AB77E0FBA3E0FAA3E0F9120AED3F
:1014A000FF1216FA90AB78E475F001120B6780DC3E
:0114B0002219
:0300230002123492
:10123400C0E0C0F0C083C082C0D075D000C000C080
:0D12440001C002C003C004C005C006C00701
:10125100E4C2AF309813AF9912139412178EC3EEF4
:10126100940840031200E6C298309907C299908011
:0512710080E4F0D2AFA3
:10127600D007D006D005D004D003D002D001D000CC
:0B128600D0D0D082D083D0F0D0E03276
:1016530043B7C043C920E4908081F0908084F0A315
:0E166300F0759BD075BB03759DC8759A01226A
:0E170800908081E0640160F87401F08F9C22F3
:1014B10090ABBDEBF0A3EAF0A3E9F090ABBDE0FB8C
:1014C100A3E0FAA3E04A4B6027ED6024AF051DEFCE
:1014D100601E90ABBDE0FBA3E0FAA3E0F9120AEDB8
:1014E100FF12170890ABBEE475F001120B6780DCA8
:0114F10022D8
:03008300020086F2
:0F008600C0E0C083C082C0D075D000C004C007E6
:10009500C2AFE59B30E028AF9C908084E0FCA3E0F4
:1000A500242AF58274A03CF583EFF0908085E00466
:1000B500F07006908084E004F0539BFE539BFEE5B0
:1000C5009B30E10B539BFD539BFD908081E4F043F6
:0400D500C901D2AFDC
:0D00D900D007D004D0D0D082D083D0E03248
:10006E00E4908086F0A3F0759680759780F5D9752B
:05007E00E7E0D2BB2207
:0B1766008F9EE59630E0FB5396FE22BC
:1014F20090ABC0EBF0A3EAF0A3E9F090ABC0E0FB45
:10150200A3E0FAA3E04A4B6027ED6024AF051DEF8C
:10151200601E90ABC0E0FBA3E0FAA3E0F9120AED73
:10152200FF12176690ABC1E475F001120B6780DC05
:011532002296
:030053000200594F
:010059003274
:03005B000211741B
:0F117400C0E0C083C082C0D075D000C004C007E7
:10118300C2AFE59730E038AF9F908086E0FCA3E0E4
:1011930024AAF58274A03CF583EFF0908087E004E5
:1011A300F07006908086E004F05397FEC39080872A
:1011B300E09480908086E094004004E4F0A3F04340
:0411C300C901D2AFDD
:0D11C700D007D004D0D0D082D083D0E03249
:10169F00E4908088F0A3F075A78075AB80F5AE75E8
:0516AF00AFE0D2BD22F6
:0B1771008FACE5A730E0FB53A7FE2281
:1015330090ABC3EBF0A3EAF0A3E9F090ABC3E0FBFD
:10154300A3E0FAA3E04A4B6027ED6024AF051DEF4B
:10155300601E90ABC3E0FBA3E0FAA3E0F9120AED2F
:10156300FF12177190ABC4E475F001120B6780DCB6
:011573002255
:0300630002005A3E
:01005A003273
:03006B000211D4AB
:0F11D400C0E0C083C082C0D075D000C004C00787
:1011E300C2AFE5AB30E038AFAD908088E0FCA3E060
:1011F3002400F58274803CF583EFF0908089E0044D
:10120300F07006908088E004F053ABFEC3908089B1
:10121300E09480908088E094004004E4F0A3F043DD
:04122300C901D2AF7C
:0D122700D007D004D0D0D082D083D0E032E8
:0300560002002E77
:1016EA0000000000000000000000000000000000F0
:100E920090AB31EEF0A3EFF0A3ECF0A3EDF0A3EAF8
:040EA200F0A3EBF0DE
:100EA60078377CAB7D017BFF7A1679EA7E007F0876
:100EB600120AC790AB37745AF090AB31E0FCA3E04E
:100EC600FDAE047810CEC313CE13D8F990AB38F02C
:100ED600ECA3F090AB31A3E090AB3AF090AB33E0EB
:100EE600FCA3E0FDEC90AB3BF0A3EDF090AB35E05E
:100EF600FCA3E0FDEC90AB3DF0A3EDF07B017AABFB
:100F0600793790AB8AE4F0A37408F0FF7E001203F1
:100F1600677F057E001216147B017AAB793790AB9A
:100F26008AE4F0A304F07F087E001205B490AB3784
:030F3600E070DE8A
:010F39002295
:100F3A0090AB77EEF0A3EFF0A3ECF0A3EDF0A3EA09
:040F4A00F0A3EBF035
:100F4E00787D7CAB7D017BFF7A1679F27E007F087F
:100F5E00120AC790AB7D74A5F090AB77E0FCA3E0CE
:100F6E00FDAE047810CEC313CE13D8F990AB7EF03D
:100F7E00ECA3F090AB77A3E090AB80F090AB79E070
:100F8E00FCA3E0FDEC90AB81F0A3EDF090AB7BE029
:100F9E00FCA3E0FDEC90AB83F0A3EDF07B017AAB0C
:100FAE00797D90AB8AE4F0A37408F0FF7E00120303
:100FBE00677F057E001216147B017AAB797D90ABAC
:100FCE008AE4F0A304F07F087E001205B490AB7D96
:030FDE00E070DEE2
:010FE10022ED
:0F011C0042ABB4000042ABB6000042ABB20000F1
:0E171600438901758CBC758ACDD2A9D28C2274
:03000B000212914D
:10129100C0E0C083C082C0D0C2AF758CBC758ACD9E
:1012A10090ABB5E004F0700690ABB4E004F0D390DD
:1012B100ABB5E094E890ABB4E094034020E4F0A334
:1012C100F090ABB7E004F0700690ABB6E004F0909C
:1012D100ABB3E004F0700690ABB2E004F043C90197
:0B12E100D2AFD0D0D082D083D0E0325A
:1016B40075C870E4F5CDF5CC75CBBC75CACD43A81F
:0416C40020D2C82246
:03002B0002005E72
:03005E00C2C632E5
:01006100227C
:10012B006100A93100C1814001C0804101C0804103
:10013B0000C1814001C0804100C1814000C18140AC
:10014B0001C0804101C0804100C1814000C181409C
:10015B0001C0804100C1814001C0804101C080418C
:10016B0000C1814001C0804100C1814000C181407C
:10017B0001C0804100C1814001C0804101C080416C
:10018B0000C1814000C1814001C0804101C080415C
:10019B0000C1814001C0804100C1814000C181404C
:1001AB0001C0804101C0804100C1814000C181403C
:1001BB0001C0804100C1814001C0804101C080412C
:1001CB0000C1814000C1814001C0804101C080411C
:1001DB0000C1814001C0804100C1814000C181400C
:1001EB0001C0804100C1814001C0804101C08041FC
:1001FB0000C1814001C0804100C1814000C18140EC
:10020B0001C0804101C0804100C1814000C18140DB
:10021B0001C0804100C1814001C0804101C08041CB
:10022B0000C181406100AA3100C0C101C30302C2F9
:10023B00C60607C705C5C404CC0C0DCD0FCFCE0E1B
:10024B000ACACB0BC90908C8D81819D91BDBDA1A8B
:10025B001EDEDF1FDD1D1CDC14D4D515D71716D6FB
:10026B00D21213D311D1D010F03031F133F3F2326B
:10027B0036F6F737F53534F43CFCFD3DFF3F3EFEDB
:10028B00FA3A3BFB39F9F83828E8E929EB2B2AEA4B
:10029B00EE2E2FEF2DEDEC2CE42425E527E7E626BB
:1002AB0022E2E323E12120E0A06061A163A3A2622B
:1002BB0066A6A767A56564A46CACAD6DAF6F6EAE9B
:1002CB00AA6A6BAB69A9A86878B8B979BB7B7ABA0B
:1002DB00BE7E7FBF7DBDBC7CB47475B577B7B6767B
:1002EB0072B2B373B17170B05090915193535292EB
:1002FB0096565797559594549C5C5D9D5F9F9E5E5B
:10030B005A9A9B5B99595898884849894B8B8A4ACA
:10031B004E8E8F4F8D4D4C8C44848545874746863A
:08032B008242438341818040BE
:1012EC0090ABB8EBF0A3EAF0A3E9F0A3ECF0A3ED1C
:0112FC00F001
:1012FD007FFF7DFF90ABBB74FFF5F0120B7D45F0CA
:10130D00603190ABB8E0FBA3E475F001120B7DA941
:10131D00F0FA120AED6DFB7A002431F582EA34A958
:10132D00F583E06FFD74312BF582EA34AAF583E085
:07133D00FF80C1EFFEEDFF90
:011344002286
:1016340090A12AE064016016E490A12DF0A3F0A328
:0F164400F0A3F090A12BF0A3F090A12A04F022C4
:1013450090A12BE07002A3E070037FFF2290A12FF4
:10135500E0FEA3E02431F58274A13EF583E0FF9021
:10136500A130E004F0700690A12FE004F090A12FC9
:10137500E0B4080CA3E0B40007E490A12FF0A3F0BB
:0E13850090A12CE024FFF090A12BE034FFF0AB
:011393002237
:1013940090A12BE064087002A3E0604190A12DE0CD
:1013A400FCA3E02431F58274A13CF583EFF090A115
:1013B4002EE004F0700690A12DE004F090A12DE041
:1013C400B4080CA3E0B40007E490A12DF0A3F090BE
:0E13D400A12CE004F0700690A12BE004F022A2
:0D00160074312FF582E434A1F583E0FF2260
:1000E600E490A12DF0A3F0A3F0A3F090A12BF0A330
:0200F600F022F6
:09177C0090A12FE0FEA3E0FF2282
:0917850090A12DE0FEA3E0FF227B
:09178E0090A12BE0FEA3E0FF2274
:1015B40061616161000000000000000000000000A3
:1015C4000000000000000000000000000000000017
:1015D4000000000000000000000000000000000007
:1015E40000000000000000000000000000000000F7
:1003330042ABAE000042ABB0000042ABAC00006089
:1003430020AB8C0000000000000000000000000053
:10035300000000000000000000000000000000009A
:0303630000000097
:0B142B0090AB7CEBF0A3EAF0A3E9F02B
:10143600E4FEA3F0A3F07F0290AB7CE0FBA3E0FA0E
:10144600A3E0F98F828E83120B06FD90AB80E02D10
:10145600F090AB7FE03400F00FBF00010EEF6407A1
:091466004E70D590AB7FA3E0FFAE
:01146F00225A
:0617970090ABABE0FF2265
:080BC00090AB31EFF0A3EDF062
:100BC80078337CAB7D017BFF7A1579B97E007F1E77
:100BD800120AC7E490AB51F0A3F090AB3374AAF0BB
:100BE80090AB52E004F0700690AB51E004F090AB8B
:100BF8003474AAF090AB52E004F0700690AB51E068
:100C080004F090AB3574FAF090AB52E004F0700643
:100C180090AB51E004F090AB367401F090AB52E029
:100C280004F0700690AB51E004F090AB377420F0FC
:100C380090AB52E004F0700690AB51E004F0E49001
:100C4800AB38F090AB52E004F0700690AB51E00482
:100C5800F090AB397402F090AB52E004F07006905B
:100C6800AB51E004F090AB31E090AB3AF090AB526E
:100C7800E004F0700690AB51E004F090AB32E090E5
:100C8800AB3BF090AB52E004F0700690AB51E0043F
:100C9800F07B017AAB793312142B90AB3CEFF090D8
:100CA800AB52E004F0700690AB51E004F090AB5604
:100CB8007401F0A374ABF0A37433F090AB51E0FF70
:100CC800A3E090AB59CFF0A3EFF07B017AAB798C1E
:100CD8001213E290AB51A3E090ABAAF0A37401F019
:0D0CE800FB7AAB798C90ABAAE0FD02147092
:0E172400120AEDFF900001120B06FD020BC031
:101574007B017AAB79AC90AB8AE4F0A37402F07F80
:10158400007E501205B490ABACE06023A3E0601F72
:101594007B017AAB79AC1217247B017AAB79AE90DC
:1015A400AB8AE4F0A37402F07F007E50120367223A
:0C175A00121797EF64016003121574224F
:050026007EFF7FFF22B8
:1010FD0090AB55E0FBA3E0FAA3E0F9A3E0FCA3E07D
:01110D00FDE4
:10110E0090AB7AECF0A3EDF090AB77EBF0A3EAF0B6
:10111E00A3E9F0120AED64AA704890AB77E0FBA346
:10112E00E0FAA3E0F9900001120B0664AA70339066
:10113E000002120B06B4F52A12142B90AB77E0FBCB
:10114E00A3E0FAA3E0F990AB7BE024FFFD90AB7A2D
:10115E00E034FF8D82F583120B06B507057E007F06
:06116E000122E4FEFF2255
:0B0DE40090AB77EBF0A3EAF0A3E9F07E
:100DEF00E490AB7FF0A3F090AB7AE0FBA3E0FAA323
:100DFF00E0F9900006120B06FF90AB77E0FBA3E043
:100E0F00FAA3E0F9EF120B3390AB7DE4F0A3740774
:100E1F00F090AB7AE0FBA3E0FAA3E0F990000612A2
:100E2F000B062407FFE433FE90AB7DE0FCA3E0FD4F
:100E3F00C39FEE6480F8EC64809850468D828C835B
:100E4F00120B06FF90AB77E0FBA3E0FAA3E02401BF
:100E5F00F9E43AFA90AB7FE0FCA3E029F9EA3CFA17
:100E6F00EF120B3390AB80E004F0700690AB7FE095
:100E7F0004F090AB7EE004F0709790AB7DE004F04F
:020E8F00808F52
:010E9100223E
:1007FC0090AB58ECF0A3EDF090AB55EBF0A3EAF016
:03080C00A3E9F06D
:10080F00900004120B06FE900005120B06FDEDFF83
:10081F0090AB5AEEF0A3EFF0785C7CAB7D017BFFE1
:10082F007A1579D77E007F17120AC7121797EF60D4
:01083F006D4B
:1008400090AB90E0FEA3E0FDEDFF90AB73EEF0A364
:10085000EFF01210FDEF4E700E7B017AAB798C90A9
:10086000ABAAE0FD02147090AB5AE0FEA3E0FF904B
:10087000AB73E06E7003A3E06F60030209F690AB08
:1008800055E0FBA3E0FAA3E0F9900003120B066029
:10089000030209F690ABABF07B017AAB79AE90AB7B
:0D08A0008AF0A37402F07F007E500203670F
:1008AD0078737CAB7D017BFF7A1579EE7E007F013D
:1008BD00120AC778747CAB7D017BFF7A1579EF7EC8
:1008CD00007F01120AC778757CAB7D017BFF7A151D
:1008DD0079F07E007F02120AC71210FDEF4E7003F1
:1008ED000209F690AB55E0F9A3E0FAA3E090AB7ADC
:1008FD00C9F0A3EAF0A3E9F07B017AAB795C120DA4
:10090D00E490AB5AE0FEA3E08EF0120B93092A207F
:10091D001009512020097B2030000009F690AB5DB5
:10092D00E090AB73F07B017AAB797390AB8AE4F016
:10093D00A304F07F007E511203677B027A007D00D5
:10094D007C51802590AB5DE090AB74F07B017AAB70
:10095D00797390AB8AE4F0A304F07F007E5112030B
:10096D00677B027A007D007C52E4FFFE80787BFF7E
:10097D007A1579B47D0412147090AB5DE090AB756F
:10098D00F090AB5EE090AB76F07B017AAB79757D44
:10099D000212147090AB75E0F97A007B0090AB8A6F
:1009AD00E4F0A304F07F007E5312036790AB76E072
:1009BD00F97A007B0090AB8AE4F0A304F07F007E0F
:1009CD00541203677B017AAB797590AB8AE4F0A37F
:1009DD007402F07F007E551203677B027A007D0062
:0909ED007C557F047E00120F3AD4
:0109F60022DE
:100CF5007F967E0012161412002690AB31EEF0A3FB
:100D0500EFF012178EC3EF9409EE94005003020D15
:0D0D1500E390AB31E0F47003A3E0F4706FE5
:100D220012178E90AB33EEF0A3EFF07F327E0012FB
:100D3200161412178E90AB33E06E7003A3E06F604F
:040D420003020DE3B8
:100D460090AB35F0A3F090AB33E0FEA3E0FFC39089
:100D5600AB36E09F90AB35E09E502512134590AB25
:100D660035E0FCA3E02437F58274AB3CF583EFF065
:100D760090AB36E004F070CE90AB35E004F080C660
:090D86007B017AAB793790AB33A5
:020D8F00804A98
:100D9100E490AB33F0A3F090AB31E0FEA3E0FFC3EE
:100DA10090AB34E09F90AB33E09E502512134590F9
:100DB100AB33E0FCA3E02435F58274AB3CF583EF63
:100DC100F090AB34E004F070CE90AB33E004F080EF
:100DD100C67B017AAB793590AB31E0FCA3E0FD1223
:020DE10007FC0D
:010DE30022ED
:0E1732007B027A007D007C51E4FFFE020E92E5
:0E1740007B027A007D007C52E4FFFE020E92D6
:1010830078C67CAB7D017BFF7A1579F27E007F0207
:10109300120AC77B027A007D007C557F047E001212
:1010A3000E927B017AAB79C690AB8AE4F0A374020B
:1010B300F07F007E551205B490ABC6E0F97A007B51
:1010C3000090AB8AE4F0A304F07F007E5312036721
:1010D30090ABC7E0F97A007B0090AB8AE4F0A304FD
:1010E300F07F007E541203677B017AAB79C67D02E1
:0A10F3001214707F887E1302161499
:06179D0012173202174092
:0B13E20090AB53EBF0A3EAF0A3E9F09E
:1013ED00E4FFFED390AB5AE09F90AB59E09E402DA9
:1013FD0090AB56E0FBA3E0FAA3E0F98F828E831247
:10140D000B06FD90AB53E0FBA3E0FAA3E0F98F824E
:0D141D008E83ED120B450FBF00010E80C63F
:01142A00229F
:101003000216C8E493A3F8E493A34003F68001F225
:1010130008DFF48029E493A3F85407240CC8C333EE
:10102300C4540F4420C8834004F456800146F6DFBD
:10103300E4800B0102040810204080900100E47E4C
:10104300019360BCA3FF543F30E509541FFEE493B2
:10105300A360010ECF54C025E060A840B8E493A379
:10106300FAE493A3F8E493A3C8C582C8CAC583CAA4
:10107300F0A3C8C582C8CAC583CADFE9DEE780BE5C
:010366000096
:1009F700E709F608DFFA8046E709F208DFFA803EE2
:100A070088828C83E709F0A3DFFA8032E309F608CE
:100A1700DFFA8078E309F208DFFA807088828C8336
:100A2700E309F0A3DFFA806489828A83E0A3F608EA
:100A3700DFFA805889828A83E0A3F208DFFA804CC4
:100A470080D280FA80C680D4806980F2803380109B
:100A570080A680EA809A80A880DA80E280CA803304
:100A670089828A83ECFAE493A3C8C582C8CCC5837C
:100A7700CCF0A3C8C582C8CCC583CCDFE9DEE7804C
:100A87000D89828A83E493A3F608DFF9ECFAA9F0CB
:100A9700EDFB2289828A83ECFAE0A3C8C582C8CC21
:100AA700C583CCF0A3C8C582C8CCC583CCDFEADE3A
:100AB700E880DB89828A83E493A3F208DFF980CC9C
:100AC70088F0EF60010E4E60C388F0ED2402B40495
:100AD7000050B9F582EB2402B4040050AF2323453C
:060AE7008223900A477310
:100AED00BB010689828A83E0225002E722BBFE0207
:090AFD00E32289828A83E493223A
:100B0600BB010CE58229F582E5833AF583E02250A4
:100B160006E92582F8E622BBFE06E92582F8E222EE
:0D0B2600E58229F582E5833AF583E4932208
:100B3300BB010689828A83F0225002F722BBFE01A1
:020B4300F3229B
:100B4500F8BB010DE58229F582E5833AF583E8F0E6
:100B5500225006E92582C8F622BBFE05E92582C892
:020B6500F2227A
:100B6700C5F0F8A3E028F0C5F0F8E5821582700219
:060B77001583E038F022B6
:100B7D00A3F8E0C5F025F0F0E5821582700215832B
:060B8D00E0C838F0E82288
:100B9300D083D082F8E4937012740193700DA3A3F1
:100BA30093F8740193F5828883E473740293B5F028
:0D0BB300067403936860E9A3A3A3A380D890
:00000001FF
