:030000000217F1F3
:0800F800FFFF4457494E543547
:1017F100759401759502758E0075930075C87075A5
:10180100C96075F800787FE4F6D8FD758107021884
:011811004D89
:0C001600006400005A00002C20010BB810
:10174D0078C47CAA7D017BFF7A0079167E007F022A
:10175D001201D078C67CAA7D017BFF7A0079187EB4
:10176D00007F021201D078C87CAA7D017BFF7A0030
:10177D00791A7E007F041201D078CC7CAA7D017B82
:10178D00FF7A00791E7E007F041201D07B017AAAB8
:10179D0079C490AB23E4F0A37402F07F107E501255
:1017AD0009007B017AAA79C690AB23E4F0A37402F9
:1017BD00F07F207E501209007B017AAA79C890AB88
:1017CD0023E4F0A37404F07F807E001209007B01F6
:1017DD007AAA79CC90AB23E4F0A37404F07F827ED7
:0417ED0000020900ED
:102091001221E67B017AA079B61220BD7B017AA4D8
:1020A10079BD1220BD12002612174D122143120EC6
:0C20B100E312223D12229312205780F20D
:1020E500E4FDFCC3ED9FEC9E5015E4FBFA0BBB0031
:0F20F500010AEB640F4A70F50DBD00010C80E489
:0121040022B8
:10210500E4FDFCC3ED9FEC9E5015E4FBFA0BBB0010
:0F211500010ABA1CF8BBE8F50DBD00010C80E40F
:012124002298
:10217C00E4F58E75C870F59375940175950275C963
:07218C006075F901F5F8226E
:0C223100E4F5A8F5B8F59AF5A9F5B92276
:1021930075F90175B70375BC03E4F5BDF5BEF580AC
:0721A300F590F5A0F5B02254
:03000300020006F2
:05000600C2AFD2AF32D1
:0300130002000EDA
:05000E00C2AFD2AF32C9
:1021E600C2AF12223112219312229C120056D2AF94
:0121F60022C6
:0F0B4D0090AB20EBF0A3EAF0A3E9F0AD07AC0604
:100B5C0090AB20E0FBA3E0FAA3E04A4B7003020D3C
:100B6C0094A3E0FEA3E0FF4E7003020D94EEC313BA
:100B7C00FEEF132DFFEE3CFED3EF94FEEE94FF4000
:100B8C0003020D94C2AFED5401FBECC313FCED1347
:100B9C00FDAE047810CEC313CE13D8F9F5F1ECF5F5
:100BAC00F2AF058FF3E4F5F875F401D2FF30FCFDDC
:100BBC00D2FDEB6401707D90AB23E07004A3E06484
:100BCC0001700AC2FBC2FAD2F9C2F88008C2FBC299
:100BDC00FAD2F9D2F8D2FE20FEFD90AB23E07004DD
:100BEC00A3E0640190AB20701BE0FBA3E475F00163
:100BFC001202DBA9F0FAE5FC12023C90AB24E024D3
:100C0C00FF020D84E0FBA3E475F0011202DBA9F0F6
:100C1C00FAE5FC12023C90AB20E0FBA3E475F0017A
:100C2C001202DBA9F0FAE5FD12023C90AB24E024A1
:100C3C00FE020D8490AB23E0FEA3E0FF4E70030296
:100C4C000D8FC3EF9404EE94004003020D1DEE7063
:100C5C0022EF14601614600D147018D2FBD2FAD265
:100C6C00F9C2F8800ED2FBD2FA8004D2FBC2FAC2CF
:100C7C00F9C2F8D2FE20FEFD90AB23E0FEA3E0FF0C
:100C8C00EE6003020D8FEF14607014604414600367
:100C9C00020D8F90AB20E0FBA3E475F0011202DB98
:100CAC00A9F0FAE5FA12023C90AB20E0FBA3E47544
:100CBC00F0011202DBA9F0FAE5FB12023C90AB202A
:100CCC00E0FBA3E475F0011202DBA9F0FAE5FC806D
:100CDC003B90AB20E0FBA3E475F0011202DBA9F022
:100CEC00FAE5FA12023C90AB20E0FBA3E475F001AC
:100CFC001202DBA9F0FAE5FB801290AB20E0FBA31B
:100D0C00E475F0011202DBA9F0FAE5FA12023C805C
:100D1C0072D2FBD2FAD2F9D2F8D2FE20FEFD90AB01
:100D2C0020E0FBA3E475F0011202DBA9F0FAE5FA6E
:100D3C0012023C90AB20E0FBA3E475F0011202DB45
:100D4C00A9F0FAE5FB12023C90AB20E0FBA3E475A2
:100D5C00F0011202DBA9F0FAE5FC12023C90AB2088
:100D6C00E0FBA3E475F0011202DBA9F0FAE5FD1239
:100D7C00023C90AB24E024FCF090AB23E034FFF079
:080D8C00020C40E4F5F8D2AFBF
:010D9400223C
:0F09000090AB20EBF0A3EAF0A3E9F0AD07AC0653
:10090F0090AB20E0FBA3E0FAA3E04A4B7003020B8D
:10091F004CA3E0FEA3E0FF4E7003020B4CEEC3139B
:10092F00FEEF132DFFEE3CFED3EF94FEEE94FF404F
:10093F0003020B4CC2AFED5401FBECC313FCED13E0
:10094F00FDAE047810CEC313CE13D8F9F5F1ECF544
:10095F00F2AF058FF3E4F5F875F401D2FF30FCFD2B
:10096F00C2FDEB6401707C90AB23E0FEA3E0FF645B
:10097F00014E700AC2FBC2FAD2F9C2F88008C2FB5C
:10098F00C2FAD2F9D2F8EF64014E90AB20701AE0A0
:10099F00FBA3E475F0011202DBA9F0FA1201F6F5E0
:1009AF00FC90AB24E024FF802DE0FBA3E475F00165
:1009BF001202DBA9F0FA1201F6F5FC90AB20E0FB76
:1009CF00A3E475F0011202DBA9F0FA1201F6F5FDAE
:1009DF0090AB24E024FEF090AB23E034FFF0D2FE86
:1009EF0020FEFD90AB23E0FEA3E0FF4E7003020B51
:1009FF0047C3EF9404EE94004003020AD5EE702231
:100A0F00EF14601614600D147018D2FBD2FAD2F9DD
:100A1F00C2F8800ED2FBD2FA8004D2FBC2FAC2F91E
:100A2F00C2F890AB23E0FEA3E0FFEE6003020ACE14
:100A3F00EF146076146047146003020ACE90AB2067
:100A4F00E0FBA3E475F0011202DBA9F0FA1201F644
:100A5F00F5FA90AB20E0FBA3E475F0011202DBA9DD
:100A6F00F0FA1201F6F5FB90AB20E0FBA3E475F072
:100A7F00011202DBA9F0FA1201F6F5FC804190ABEE
:100A8F0020E0FBA3E475F0011202DBA9F0FA1201DA
:100A9F00F6F5FA90AB20E0FBA3E475F0011202DB50
:100AAF00A9F0FA1201F6F5FB801590AB20E0FBA33D
:100ABF00E475F0011202DBA9F0FA1201F6F5FAD291
:100ACF00FE30FE7480FBD2FBD2FAD2F9D2F890AB93
:100ADF0020E0FBA3E475F0011202DBA9F0FA12018A
:100AEF00F6F5FA90AB20E0FBA3E475F0011202DB00
:100AFF00A9F0FA1201F6F5FB90AB20E0FBA3E47529
:100B0F00F0011202DBA9F0FA1201F6F5FC90AB200E
:100B1F00E0FBA3E475F0011202DBA9F0FA1201F673
:100B2F00F5FDD2FE20FEFD90AB24E024FCF090AB4F
:0D0B3F0023E034FFF00209F2E4F5F8D2AF34
:010B4C002286
:10067B004180800042808200004180810042808462
:0C068B00000042808600004280880000D1
:10002E0043B71043C940E4908080F0908082F0A3E3
:10003E00F075D88075985053877F75BA0375AAE40A
:05004E00D29CD2AC229F
:0E220700908080E0640160F87401F08F9922ED
:101F530090AB10EBF0A3EAF0A3E9F090AB10E0FB39
:101F6300A3E0FAA3E04A4B6027ED6024AF051DEF21
:101F7300601E90AB10E0FBA3E0FAA3E0F91201F6B8
:101F8300FF12220790AB11E475F0011202C580DC49
:011F9300222B
:03002300021A3A84
:101A3A00C0E0C0F0C083C082C0D075D000C000C072
:0D1A4A0001C002C003C004C005C006C007F3
:101A570090AB25E4F0C2AF30982DE599F07B017A81
:101A6700A079B612227FE4B5070DEEB404097B0115
:101A77007AA079B61219B37B017AA079B690AB2513
:101A8700E0FD121927C298309907C299908080E427
:031A9700F0D2AFDB
:101A9A00D007D006D005D004D003D002D001D000A0
:0B1AAA00D0D0D082D083D0F0D0E0324A
:1021250043B7C043C920E4908081F0908084F0A338
:0E213500F0759BD075BB03759DC8759A01228D
:0E221500908081E0640160F87401F08F9C22DB
:101F940090AB8DEBF0A3EAF0A3E9F090AB8DE0FBFE
:101FA400A3E0FAA3E04A4B6027ED6024AF051DEFE0
:101FB400601E90AB8DE0FBA3E0FAA3E0F91201F6FA
:101FC400FF12221590AB8EE475F0011202C580DC7D
:011FD40022EA
:03008300021D510A
:0F1D5100C0E0C083C082C0D075D000C004C007FE
:101D6000C2AFE59B30E028AF9C908084E0FCA3E00C
:101D7000242AF58274A03CF583EFF0908085E0047E
:101D8000F07006908084E004F0539BFE539BFEE5C8
:101D90009B30E10B539BFD539BFD908081E4F0430E
:041DA000C901D2AFF4
:0D1DA400D007D004D0D0D082D083D0E03260
:10006E00E4908086F0A3F0759680759780F5D9752B
:05007E00E7E0D2BB2207
:0B2255008F9EE59630E0FB5396FE22C2
:101FD50090AB90EBF0A3EAF0A3E9F090AB90E0FBB7
:101FE500A3E0FAA3E04A4B6027ED6024AF051DEF9F
:101FF500601E90AB90E0FBA3E0FAA3E0F91201F6B6
:10200500FF12225590AB91E475F0011202C580DCF8
:0120150022A8
:0300530002002286
:0100220032AB
:03005B00021BA5E0
:101BA500C0E0C0F0C083C082C0D075D000C000C006
:0D1BB50001C002C003C004C005C006C00787
:101BC20090AB29E4F0C2AFE59730E02EE59FF07BC1
:101BD200017AA479BD12227FE4B5070DEEB404099F
:101BE2007B017AA479BD1219B37B017AA479BD90E5
:0C1BF200AB29E0FD1219275397FED2AF7B
:101BFE00D007D006D005D004D003D002D001D0003B
:0B1C0E00D0D0D082D083D0F0D0E032E4
:1021AA00E4908088F0A3F075A78075AB80F5AE75D2
:0521BA00AFE0D2BD22E0
:0B2260008FACE5A730E0FB53A7FE2287
:1020160090AB93EBF0A3EAF0A3E9F090AB93E0FB6F
:10202600A3E0FAA3E04A4B6027ED6024AF051DEF5D
:10203600601E90AB93E0FBA3E0FAA3E0F91201F671
:10204600FF12226090AB94E475F0011202C580DCA9
:012056002267
:030063000200593F
:010059003274
:03006B00021DB1C2
:0F1DB100C0E0C083C082C0D075D000C004C0079E
:101DC000C2AFE5AB30E038AFAD908088E0FCA3E077
:101DD0002400F58274803CF583EFF0908089E00464
:101DE000F07006908088E004F053ABFEC3908089C9
:101DF000E09480908088E094004004E4F0A3F043F5
:041E0000C901D2AF93
:0D1E0400D007D004D0D0D082D083D0E032FF
:06229C0012002E02006E8C
:1021F70000000000000000000000000000000000D8
:1015FD0090AAC9EEF0A3EFF0A3ECF0A3EDF0A3EAEF
:04160D00F0A3EBF06B
:1016110078CF7CAA7D017BFF7A2179F77E007F0854
:101621001201D090AACF745AF090AAC9E0FCA3E0AD
:10163100FDAE047810CEC313CE13D8F990AAD0F022
:10164100ECA3F090AAC9A3E090AAD2F090AACBE0B3
:10165100FCA3E0FDEC90AAD3F0A3EDF090AACDE0BD
:10166100FCA3E0FDEC90AAD5F0A3EDF07B017AAAF2
:1016710079CF90AB23E4F0A37408F0FF7E00120948
:10168100007F057E001221057B017AAA79CF90ABFC
:1016910023E4F0A304F07F087E00120B4D90AACF43
:0316A100E070DE18
:0116A4002223
:1016A50090AB10EEF0A3EFF0A3ECF0A3EDF0A3EAFE
:0416B500F0A3EBF0C3
:1016B90078167CAB7D017BFF7A2179FF7E007F085C
:1016C9001201D090AB1674A5F090AB10E0FCA3E02A
:1016D900FDAE047810CEC313CE13D8F990AB17F032
:1016E900ECA3F090AB10A3E090AB19F090AB12E033
:1016F900FCA3E0FDEC90AB1AF0A3EDF090AB14E085
:10170900FCA3E0FDEC90AB1CF0A3EDF07B017AAB00
:10171900791690AB23E4F0A37408F0FF7E00120958
:10172900007F057E001221057B017AAB791690AB0B
:1017390023E4F0A304F07F087E00120B4D90AB1652
:03174900E070DE6F
:01174C00227A
:1006970042AB7B000042AB7D000042AB79000042D9
:0406A700AB7F000025
:0E222300438901758CBC758ACDD2A9D28C225C
:03000B00021E11C1
:101E1100C0E0C083C082C0D0C2AF758CBC758ACD12
:101E210090AB7CE004F0700690AB7BE004F0D390C3
:101E3100AB7CE094E890AB7BE094034020E4F0A31A
:101E4100F090AB7EE004F0700690AB7DE004F09082
:101E5100AB7AE004F0700690AB79E004F043C9017D
:0B1E6100D2AFD0D0D082D083D0E032CE
:1021BF0075C87075CD3C75CCAF75CBBC75CACD43AA
:0521CF00A820D2C82287
:03002B00021CEFC5
:101CEF00C0E0C083C082C0D0C2C690AB80E004F019
:101CFF00700690AB7FE004F090AB7FE0640370045C
:101D0F00A3E064E8703390AB85E004F0E0B43C09E5
:101D1F0090AB84E004F0A3E4F090AB84E0B43C0912
:101D2F0090AB83E004F0A3E4F090AB83E0B418022F
:101D3F00E4F090AB7FE4F0A3F0D0D0D082D083D08A
:021D4F00E03280
:030056000221BFC5
:1006AB006100A8C400C1814001C0804101C08041EC
:1006BB0000C1814001C0804100C1814000C1814027
:1006CB0001C0804101C0804100C1814000C1814017
:1006DB0001C0804100C1814001C0804101C0804107
:1006EB0000C1814001C0804100C1814000C18140F7
:1006FB0001C0804100C1814001C0804101C08041E7
:10070B0000C1814000C1814001C0804101C08041D6
:10071B0000C1814001C0804100C1814000C18140C6
:10072B0001C0804101C0804100C1814000C18140B6
:10073B0001C0804100C1814001C0804101C08041A6
:10074B0000C1814000C1814001C0804101C0804196
:10075B0000C1814001C0804100C1814000C1814086
:10076B0001C0804100C1814001C0804101C0804176
:10077B0000C1814001C0804100C1814000C1814066
:10078B0001C0804101C0804100C1814000C1814056
:10079B0001C0804100C1814001C0804101C0804146
:1007AB0000C181406100A9C400C0C101C30302C2E2
:1007BB00C60607C705C5C404CC0C0DCD0FCFCE0E96
:1007CB000ACACB0BC90908C8D81819D91BDBDA1A06
:1007DB001EDEDF1FDD1D1CDC14D4D515D71716D676
:1007EB00D21213D311D1D010F03031F133F3F232E6
:1007FB0036F6F737F53534F43CFCFD3DFF3F3EFE56
:10080B00FA3A3BFB39F9F83828E8E929EB2B2AEAC5
:10081B00EE2E2FEF2DEDEC2CE42425E527E7E62635
:10082B0022E2E323E12120E0A06061A163A3A262A5
:10083B0066A6A767A56564A46CACAD6DAF6F6EAE15
:10084B00AA6A6BAB69A9A86878B8B979BB7B7ABA85
:10085B00BE7E7FBF7DBDBC7CB47475B577B7B676F5
:10086B0072B2B373B17170B0509091519353529265
:10087B0096565797559594549C5C5D9D5F9F9E5ED5
:10088B005A9A9B5B99595898884849894B8B8A4A45
:10089B004E8E8F4F8D4D4C8C4484854587474686B5
:0808AB00824243834181804039
:101E6C0090AB88EBF0A3EAF0A3E9F0A3ECF0A3EDC0
:011E7C00F075
:101E7D007FFF7DFF90AB8B74FFF5F01202DB45F019
:101E8D00603190AB88E0FBA3E475F0011202DBA991
:101E9D00F0FA1201F66DFB7A0024C4F582EA34A83B
:101EAD00F583E06FFD74C42BF582EA34A9F583E068
:071EBD00FF80C1EFFEEDFF05
:011EC40022FB
:1020BD001201F664016020900003E4F5F01203763E
:1020CD00900005E4F5F0120376900001E4F5F012AE
:0820DD000376740112023C229B
:0B19B30090AB2AEBF0A3EAF0A3E9F0F0
:1019BE009000011202F145F070037FFF2290AB2AD6
:1019CE00E0FBA3E0FAA3E0F99000051202F1FFE9B3
:1019DE002407F9E43AFAE92FF9EA35F0FA1201F69A
:1019EE00FF90AB2AA3E0FAA3E0F9900005E475F0AE
:1019FE00011203299000051202F1B40019E5F0B4AA
:101A0E00041490AB2AE0FBA3E0FAA3E0F9900005E2
:101A1E00E4F5F012037690AB2AE0FBA3E0FAA3E024
:0B1A2E00F990000174FFF5F01203298D
:011A3900228A
:1019270090AB2AEBF0A3EAF0A3E9F090AB2AE0FB37
:10193700A3E0FAA3E0F99000011202F17004E5F0C8
:1019470064046067AF059000031202F1FDE9240704
:10195700F9E43AFAE92DF9EA35F0FAEF12023C9088
:10196700AB2AE0FBA3E0FAA3E0F9900003E475F0EB
:10197700011203299000031202F1B40019E5F0B433
:10198700041490AB2AE0FBA3E0FAA3E0F99000036C
:10199700E4F5F012037690AB2AE0FBA3E0FAA3E0AC
:0C19A700F9900001E475F0011203292200
:1021D400E92407F9E43AFAE92DF9EA3CFA1201F69E
:0221E400FF22D8
:10216100900003E4F5F0120376900005E4F5F01217
:0B2171000376900001E4F5F002037615
:0A226B009000051202F1FFAEF02210
:0A2275009000031202F1FFAEF02208
:0A227F009000011202F1FFAEF02200
:0C22490000000000640417705A00002C14
:1008B30043AB8300000042AB81000041AB870041A2
:0308C300AB860100
:0C223D001222A8EF64016003121AB522FF
:100EE3001222A8EF60077FC87E00122105120D951C
:100EF30090AAC4EEF0A3EFF01222A8EF60337B01B7
:100F03007AA079B612227F90AB4BE0FDC3EF9DEE42
:100F13009400501D7B017AAB792DE0121F5390ABE7
:100F23004DE004F0E0D394054007E490AB4CF0A30C
:100F3300F090AAC4E0F47003A3E0F46003020FCFBF
:100F43007B017AA079B612227F90AAC6EEF0A3EFB6
:100F5300F0C39408EE940050030210277F327E0002
:100F63001221057B017AA079B612227F90AAC6E0EE
:0B0F73006E7003A3E06F600302102704
:100F7E0090AAC8F0A3F090AAC6E0FEA3E0FFC3902B
:100F8E00AAC9E09F90AAC8E09E502B7B017AA07957
:100F9E00B61219B390AAC8E0FCA3E024CAF5827475
:100FAE00AA3CF583EFF090AAC9E004F070C890AAAD
:0F0FBE00C8E004F080C07B017AAA79CA90AAC665
:020FCD00805052
:100FCF00E490AAC6F0A3F090AAC4E0FEA3E0FFC38A
:100FDF0090AAC7E09F90AAC6E09E502B7B017AA0F3
:100FEF0079B61219B390AAC6E0FCA3E024C8F58223
:100FFF0074AA3CF583EFF090AAC7E004F070C89094
:10100F00AAC6E004F080C07B017AAA79C890AAC46E
:08101F00E0FCA3E0FD1203D088
:0110270022A6
:10149A0078C47CAA7D017BFF7A2279497E007F028B
:1014AA001201D07B027A007D007C51E4FFFE121506
:1014BA00FD7B017AAA79C490AB23E4F0A37402F00D
:1014CA007F007E51120B4D90AAC4E0FFC413131380
:1014DA00540190AAC6F0EF547FFFA3F090AAC5E08A
:1014EA0090AAC8F0FDEFFEEDFBAA067C007D0AFF7C
:1014FA0012027090AAC7EFF0AE02AF037C007D0A19
:10150A00120270A3EDF07B017AAA79C690AB23E4AC
:10151A00F0A304F07F107E511209007B017AAA79A8
:10152A00C790AB23E4F0A304F07F207E5112090098
:10153A007B017AAA79C890AB23E4F0A304F07F3048
:05154A007E51020900C2
:1000860078C47CAA7D017BFF7A22794B7E007F02B1
:100096001201D07B027A007D007C527F027E001224
:1000A60015FD7B017AAA79C490AB23E4F0A3740210
:1000B600F07F007E52120B4D90AAC4E090AAC6F0C3
:1000C60090AAC5E090AAC7F07B017AAA79C690AB40
:1000D60023E4F0A304F07F107E521209007B017A1C
:1000E600AA79C790AB23E4F0A304F07F207E5202E6
:0200F6000900FF
:0622A20012149A020086EE
:050026007F01021393AD
:101C8A0078C67CAA7D017BFF7A22794D7E007F048B
:101C9A001201D07B017AAA79C490AB23E4F0A37431
:101CAA0002F07F107E50120B4D90AAC5E0FF6034FF
:101CBA0090AB87E0FEEF6E602BEFF090AAC6F07B48
:101CCA00017AAA79C690AB23E4F0A37404F07F8268
:101CDA007E001209007B027A007D107C507F067E0E
:041CEA00001216A529
:011CEE0022D3
:101C190078C67CAA7D017BFF7A2279517E007F04F8
:101C29001201D07B017AAA79C490AB23E4F0A374A2
:101C390002F07F207E50120B4D90AAC5E0FF90ABB9
:101C490086E0FEEF6E6039EFF0700690AAC9742441
:101C5900F0EFB4010690AAC9742CF07B017AAA7935
:101C6900C690AB23E4F0A37404F07F807E001209D0
:101C7900007B027A007D207C507F087E001216A529
:011C89002238
:1020570090AB83E090AAC4F090AB84E090AAC5F05F
:102067007B017AAA79C490AB23E4F0A304F07F1034
:102077007E531209007B017AAA79C590AB23E4F05D
:0A208700A304F07F207E530209003D
:092293001222A2121C8A021C197D
:102143007B027A007D107C507F067E001215FD7B9A
:0E215300027A007D207C507F087E000215FD80
:0B1EC50090AAE6EBF0A3EAF0A3E9F01E
:101ED000E4FFFED390AAEDE09F90AAECE09E402D97
:101EE00090AAE9E0FBA3E0FAA3E0F98F828E8312C7
:101EF000020FFD90AAE6E0FBA3E0FAA3E0F98F82CF
:0D1F00008E83ED12024E0FBF00010E80C651
:011F0D0022B1
:101892000000000000000000000000000000000046
:1018A2000000000000000000000000000000000036
:1018B2000000000000000000000000000000000026
:1018C2000000000000000000000000000000000016
:1018D2000000000000000000000000000000000006
:1018E20000000000000000000000000000000000F6
:1018F20000000000000000000000000000000000E6
:1019020000000000000000000000000000000000D5
:1019120000000000000000000000000000000000C5
:051922000000000000C0
:1008C60042AB52000042AB54000042AB4E00004225
:1008D600AB5000006021AB2D0000000000000000BE
:1008E6000000000000000000000000000000000002
:0908F600000000000000000000F9
:0B1F0E0090AB15EBF0A3EAF0A3E9F0A4
:101F1900E4FEA3F0A3F07F0290AB15E0FBA3E0FA87
:101F2900A3E0F98F828E8312020FFD90AB19E02D89
:101F3900F090AB18E03400F00FBF00010EEF64071A
:091F49004E70D590AB18A3E0FF27
:011F5200226C
:0622A80090AB4CE0FF22A8
:0811620090AAC4EFF0A3EDF028
:10116A0078C67CAA7D017BFF7A1879927E007F1E61
:10117A001201D0E490AAE4F0A3F090AAC674AAF0EF
:10118A0090AAE5E004F0700690AAE4E004F090AAC0
:10119A00C774AAF090AAE5E004F0700690AAE4E009
:1011AA0004F090AAC874FAF090AAE5E004F0700678
:1011BA0090AAE4E004F090AAC5E090AAC9F090AA27
:1011CA00E5E004F0700690AAE4E004F090AACA747C
:1011DA0020F090AAE5E004F0700690AAE4E004F09A
:1011EA00E490AACBF090AAE5E004F0700690AAE495
:1011FA00E004F090AACC7401F090AAE5E004F07043
:10120A000690AAE4E004F090AAC4E090AACDF09077
:10121A00AAE5E004F0700690AAE4E004F07B017A03
:10122A00AA79C6121F0E90AACEEFF090AAE5E004A2
:10123A00F0700690AAE4E004F090AAE97401F0A321
:10124A0074AAF0A374C6F090AAE4E0FFA3E090AAFF
:10125A00ECCFF0A3EFF07B017AAB792D121EC5908B
:10126A00AAE4A3E090AB4BF090AAC5E090AB4CF097
:0E127A007B017AAB792D90AB4BE0FD021F5348
:0A22890090000112020FFF02116223
:101AB5007B017AAB794E90AB23E4F0A37402F07FFF
:101AC500007E50120B4D90AB4FE060217B017AAB4D
:101AD500794E7D011222897B017AAB795290AB2335
:101AE500E4F0A37402F07F007E501209007B017AB6
:101AF500AB795090AB23E4F0A37402F07F007E60D5
:101B0500120B4D90AB50E07004A3E0601B7F0112F7
:101B150012887B017AAB795290AB23E4F0A374026F
:091B2500F07F007E60120900222D
:100D9500E490AAE8F0A3F0A3F0A3F07B017AA07990
:100DA500B612226B90AAF2EEF0A3EFF07B017AA0C7
:100DB50079B612227F90AAE8E0FCA3E0D39FEC9ECF
:100DC5004003020EDE90AAF2E0FAA3E0FB90AAEA45
:100DD500E0FCA3E0FDEB2DFFEA3CFEA3F0A3EFF062
:100DE5002401FFE43EA3F0A3EFF0EB2DFFEA3CCF97
:100DF5002402CF3400A3F0A3EFF090AAECE0FEA309
:100E0500E0D394FFEE9403400BE02400F090AAECAD
:100E1500E034FCF090AAEEE0FEA3E0D394FFEE945C
:100E250003400BE02400F090AAEEE034FCF090AA19
:100E3500ECE0FCA3E0FDD394FFEC9403400E90AAF4
:100E4500F1E02400F090AAF0E034FCF07B017AA0F8
:100E550079B61221D4EF64AA70497B017AA079B6DC
:100E650090AAEEE0FCA3E0FD1221D4EF64AA703352
:100E75007B017AA079B690AAF0E0FCA3E0FD1221EF
:100E8500D4BFFA1F90AAF2E0FEA3E0FF90AAECE01F
:100E9500FCA3E06F7002EC6E600990AAEAE0FEA385
:100EA500E0FF2290AAEBE004F0700690AAEAE004C5
:100EB500F090AAE9E004F0700690AAE8E004F0904A
:100EC500AAEAE0FEA3E07003EE64046003020DB13C
:0D0ED50090AAEAF0A3F0020DB17EFF7FFFAE
:010EE20022ED
:101B2E0090AAE8E0FBA3E0FAA3E0F9A3E0FCA3E0AF
:011B3E00FDA9
:101B3F0090AB13ECF0A3EDF090AB10EBF0A3EAF049
:101B4F00A3E9F01201F664AA704890AB10E0FBA372
:101B5F00E0FAA3E0F990000112020F64AA7033902B
:101B6F00000212020FB4F52A121F0E90AB10E0FB09
:101B7F00A3E0FAA3E0F990AB14E024FFFD90AB13C0
:101B8F00E034FF8D82F58312020FB507057E007FCB
:061B9F000122E4FEFF221A
:0B154F0090AB10EBF0A3EAF0A3E9F072
:10155A00E490AB18F0A3F090AB13E0FBA3E0FAA37E
:10156A00E0F990000612020FFF90AB10E0FBA3E037
:10157A00FAA3E0F9EF12023C90AB16E4F0A3740769
:10158A00F090AB13E0FBA3E0FAA3E0F99000061297
:10159A00020F2407FFE433FE90AB16E0FCA3E0FD44
:1015AA00C39FEE6480F8EC64809850468D828C83E9
:1015BA0012020FFF90AB10E0FBA3E0FAA3E02401B4
:1015CA00F9E43AFA90AB18E0FCA3E029F9EA3CFA0C
:1015DA00EF12023C90AB19E004F0700690AB18E0F1
:1015EA0004F090AB17E004F0709790AB16E004F0AB
:0215FA00808FE0
:0115FC0022CC
:1003D00090AAEBECF0A3EDF090AAE8EBF0A3EAF022
:0303E000A3E9F09E
:1003E30090000412020FFE90000512020FFDEDFFB4
:1003F30090AAEDEEF0A3EFF078EF7CAA7D017BFFEE
:100403007A1879B07E007F171201D01222A8EF70FC
:04041300030204AE2E
:1004170090AB31E0FEA3E0FDEDFF90AB06EEF0A35D
:10042700EFF0121B2EEF4E701F7B017AAB792D90E8
:10043700AB4BE0FD121F5390AB4DE004F0E0D394BB
:1004470005500302067A805790AAEDE0FEA3E0FF6D
:1004570090AB06E0B5062BA3E0B5072690AAE8E027
:10046700FBA3E0FAA3E0F990000312020F701390C8
:10047700AB4BE0FF90AAEBE0B40007A3E0B507029F
:10048700801D7B017AAB792D90AB4BE0FD121F539A
:1004970090AB4DE004F0E0D39405500302067AE4F4
:0704A70090AB4CF0A3F02222
:1004AE0078067CAB7D017BFF7A1879C77E007F02D0
:1004BE001201D0780A7CAB7D017BFF7A1879C97E58
:1004CE00007F021201D0780E7CAB7D017BFF7A1883
:1004DE0079CB7E007F021201D0121B2EEF4E7003DD
:1004EE0002067A90AAE8E0FBA3E0FAA3E0F99000F6
:1004FE000312020F6401703B90000274FA12024E56
:10050E00900003E412024E121F0E90AAE8E0FBA325
:10051E00E0FAA3E0F990AAECE024FFFD90AAEBE04C
:10052E0034FF8D82F583EF12024E90AAEBA3E0FD0D
:10053E00121F5390AAE8E0F9A3E0FAA3E090AB13E0
:10054E00C9F0A3EAF0A3E9F07B017AAA79EF1215BC
:10055E004F90AAEDE0FEA3E08EF01203A3057720E4
:10056E0010060320200000067A90AAF2E0FEA3E017
:10057E00FDEDFF90AB0CEEF0A3EFF090AAF0E09043
:10058E00AB0AF090AAF1E090AB0BF0A3E0FAA3E077
:10059E00FB7C007D0AFFAE02120270A3EFF07C001E
:1005AE007D0AAF03AE02120270A3EDF07B017AABAF
:1005BE00790A90AB23E4F0A37402F07F007E51120F
:1005CE0009007B027A007D007C51E4FFFE1216A525
:1005DE007B017AAB790E90AB23E4F0A37402F07F2B
:1005EE00007E521209007B027A007D007C527F024F
:1005FE007E000216A590AAF0E090AB06F090AAF14C
:10060E00E090AB07F07B017AAB790690AB23E4F078
:10061E00A37402F07F007E531209007B027A007DE4
:10062E00007C537F047E001216A590AB06E090ABC3
:10063E0008F090AB83F090AB07E090AB09F090AB75
:10064E0084F07B017AAB790890AB23E4F0A304F03D
:10065E007F107E531209007B017AAB790990AB2390
:0C066E00E4F0A304F07F207E531209008A
:01067A00225D
:0512880090AAC4EFF084
:10128D0078C57CAA7D017BFF7A1879CD7E007F1E03
:10129D001201D0E490AAE3F0A3F090AAC574AAF0CD
:1012AD0090AAE4E004F0700690AAE3E004F090AA9E
:1012BD00C674AAF090AAE4E004F0700690AAE3E0E8
:1012CD0004F090AAC774FAF090AAE4E004F0700656
:1012DD0090AAE3E004F090AAC4E090AAC8F090AA06
:1012ED00E4E004F0700690AAE3E004F0E490AAC9EB
:1012FD00F090AAE4E004F0700690AAE3E004F0E4B4
:10130D0090AACAF090AAE4E004F0700690AAE3E077
:10131D0004F0E490AACBF090AAE4E004F0700690FB
:10132D00AAE3E004F07B017AAA79C5121F0E90AAF8
:10133D00CCEFF090AAE4E004F0700690AAE3E0048C
:10134D00F090AAE97401F0A374AAF0A374C5F0900B
:10135D00AAE3E0FFA3E090AAECCFF0A3EFF07B01AE
:10136D007AAB792D121EC590AAE3A3E090AB4BF09A
:10137D0090AAC4E090AB4CF07B017AAB792D90AB89
:06138D004BE0FD021F53BE
:0B10280090AB56EFF0A3EDF0A3EBF04F
:1010330078597CAB7D017BFF7A1879EB7E007F1EAC
:101043001201D0E490AB77F0A3F090AB5974AAF0FF
:1010530090AB78E004F0700690AB77E004F090ABCF
:101063005A74AAF090AB78E004F0700690AB77E086
:1010730004F090AB5B74FAF090AB78E004F0700688
:1010830090AB77E004F090AB58E090AB5CF090ABA2
:1010930078E004F0700690AB77E004F090AB5D74F9
:1010A30010F090AB78E004F0700690AB77E004F0BA
:1010B300E490AB5EF090AB78E004F0700690AB7711
:1010C300E004F090AB5F7402F090AB78E004F07052
:1010D3000690AB77E004F090AB56E090AB60F090F5
:1010E300AB78E004F0700690AB77E004F090AB5778
:1010F300E090AB61F090AB78E004F0700690AB77D2
:10110300E004F07B017AAB7959121F0E90AB62EFCA
:10111300F090AB78E004F0700690AB77E004F090C9
:10112300AAE97401F0A374ABF0A37459F090AB7700
:10113300E0FFA3E090AAECCFF0A3EFF07B017AAB42
:10114300792D121EC590AB77A3E090AB4BF0A3743F
:0F11530001F0FB7AAB792D90AB4BE0FD021F53FF
:0513930090AAC4EFF078
:1013980078C57CAA7D017BFF7A1979097E007F1EBA
:1013A8001201D0E490AAE3F0A3F090AAC574AAF0C1
:1013B80090AAE4E004F0700690AAE3E004F090AA92
:1013C800C674AAF090AAE4E004F0700690AAE3E0DC
:1013D80004F090AAC774FAF090AAE4E004F070064A
:1013E80090AAE3E004F090AAC4E090AAC8F090AAFA
:1013F800E4E004F0700690AAE3E004F0E490AAC9DF
:10140800F090AAE4E004F0700690AAE3E004F090FB
:10141800AACA7410F090AAE4E004F0700690AAE357
:10142800E004F0E490AACBF090AAE4E004F070069F
:1014380090AAE3E004F07B017AAA79C5121F0E9006
:10144800AACCEFF090AAE4E004F0700690AAE3E0DA
:1014580004F090AAE97401F0A374AAF0A374C5F08B
:1014680090AAE3E0FFA3E090AAECCFF0A3EFF07B13
:10147800017AAB792D121EC590AAE3A3E090AB4B7D
:10148800F0A37401F0FB7AAB792D90AB4BE0FD0231
:021498001F53E0
:10181200022091E493A3F8E493A34003F68001F23B
:1018220008DFF48029E493A3F85407240CC8C333D7
:10183200C4540F4420C8834004F456800146F6DFA6
:10184200E4800B010204081020408090067BE47EB5
:10185200019360BCA3FF543F30E509541FFEE4939B
:10186200A360010ECF54C025E060A840B8E493A362
:10187200FAE493A3F8E493A3C8C582C8CAC583CA8D
:10188200F0A3C8C582C8CAC583CADFE9DEE780BE45
:0108FF0000F8
:10010000E709F608DFFA8046E709F208DFFA803EE1
:1001100088828C83E709F0A3DFFA8032E309F608CE
:10012000DFFA8078E309F208DFFA807088828C8336
:10013000E309F0A3DFFA806489828A83E0A3F608EA
:10014000DFFA805889828A83E0A3F208DFFA804CC4
:1001500080D280FA80C680D4806980F2803380109B
:1001600080A680EA809A80A880DA80E280CA803304
:1001700089828A83ECFAE493A3C8C582C8CCC5837C
:10018000CCF0A3C8C582C8CCC583CCDFE9DEE7804C
:100190000D89828A83E493A3F608DFF9ECFAA9F0CB
:1001A000EDFB2289828A83ECFAE0A3C8C582C8CC21
:1001B000C583CCF0A3C8C582C8CCC583CCDFEADE3A
:1001C000E880DB89828A83E493A3F208DFF980CC9C
:1001D00088F0EF60010E4E60C388F0ED2402B40495
:1001E0000050B9F582EB2402B4040050AF2323453C
:0601F00082239001507310
:1001F600BB010689828A83E0225002E722BBFE0207
:09020600E32289828A83E4932239
:10020F00BB010CE58229F582E5833AF583E02250A4
:10021F0006E92582F8E622BBFE06E92582F8E222EE
:0D022F00E58229F582E5833AF583E4932208
:10023C00BB010689828A83F0225002F722BBFE01A1
:02024C00F3229B
:10024E00F8BB010DE58229F582E5833AF583E8F0E6
:10025E00225006E92582C8F622BBFE05E92582C892
:02026E00F2227A
:10027000BC000BBE0029EF8DF084FFADF022E4CC72
:10028000F875F008EF2FFFEE33FEEC33FCEE9DEC3B
:10029000984005FCEE9DFE0FD5F0E9E4CEFD22ED81
:1002A000F8F5F0EE8420D21CFEADF075F008EF2FCB
:1002B000FFED33FD4007985006D5F0F222C398FDBC
:0502C0000FD5F0EA2259
:1002C500C5F0F8A3E028F0C5F0F8E58215827002C4
:0602D5001583E038F02261
:1002DB00A3F8E0C5F025F0F0E582158270021583D6
:0602EB00E0C838F0E82233
:1002F100BB0110E58229F582E5833AF583E0F5F04B
:10030100A3E0225009E92582F886F008E622BBFE27
:100311000AE92582F8E2F5F008E222E5832AF5836D
:08032100E993F5F0A3E9932232
:10032900BB010DC58229C582C5833AC5830202C5B1
:100339005011C58229F808E5F026F618F5F0E5828E
:1003490036F622BBFE11C58229F808E225F0F5F040
:10035900F218E23582F222F8E58229F582E5832A4C
:0D036900F58374019325F0F5F0E49338223C
:10037600F8BB0111E58229F582E5833AF583E8F0B9
:10038600E5F0A3F0225009E92582C8F608A6F02276
:0D039600BBFE09E92582C8F2E5F008F2225D
:1003A300D083D082F8E4937012740193700DA3A3E9
:1003B30093F8740193F5828883E473740293B5F020
:0D03C300067403936860E9A3A3A3A380D888
:00000001FF
