:030000000213CA1E
:0800F800FFFF4457494E543547
:1013CA00759401759502758E0075930075C87075D0
:1013DA00C96075F800787FE4F6D8FD7581070214B4
:0113EA0026DC
:0500060068656C6C6FE1
:101A980078C07CAB7D017BFF7A0079067E007F05EC
:101AA800120B3C7B017AAB79C090AB8EE4F0A37447
:091AB80005F07F007E300205D725
:101B8100121BBB121B01120062120C8A121C1212D0
:041B91001C5F80F560
:101AC100E4FDFCC3ED9FEC9E5015E4FBFA0BBB005B
:0F1AD100010AEB640F4A70F50DBD00010C80E4B3
:011AE00022E3
:101AE100E4FDFCC3ED9FEC9E5015E4FBFA0BBB003B
:0F1AF100010ABA1CF8BBE8F50DBD00010C80E43A
:011B000022C2
:101B3E00E4F58E75C870F59375940175950275C9A7
:071B4E006075F901F5F822B2
:0C1C0600E4F5A8F5B8F59AF5A9F5B922A7
:101B550075F90175B70375BC03E4F5BDF5BEF580F0
:071B6500F590F5A0F5B02298
:0300030002000EEA
:05000E00C2AFD2AF32C9
:03001300020026C2
:05002600C2AFD2AF32B1
:101BBB00C2AF121C06121B55120056120061D2AF97
:011BCB0022F7
:0F08240090AB8BEBF0A3EAF0A3E9F0AD07AC06C5
:1008330090AB8BE0FBA3E0FAA3E04A4B7003020A00
:100843006BA3E0FEA3E0FF4E7003020A6BEEC3133B
:10085300FEEF132DFFEE3CFED3EF94FEEE94FF402C
:1008630003020A6BC2AFED5401FBECC313FCED139F
:10087300FDAE047810CEC313CE13D8F9F5F1ECF521
:10088300F2AF058FF3E4F5F875F401D2FF30FCFD08
:10089300D2FDEB6401707D90AB8EE07004A3E06445
:1008A30001700AC2FBC2FAD2F9C2F88008C2FBC2C5
:1008B300FAD2F9D2F8D2FE20FEFD90AB8EE070049E
:1008C300A3E0640190AB8B701BE0FBA3E475F00124
:1008D300120C47A9F0FAE5FC120BA890AB8FE024A9
:1008E300FF020A5BE0FBA3E475F001120C47A9F0D9
:1008F300FAE5FC120BA890AB8BE0FBA3E475F001C7
:10090300120C47A9F0FAE5FD120BA890AB8FE02477
:10091300FE020A5B90AB8EE0FEA3E0FF4E70030283
:100923000A66C3EF9404EE940040030209F4EE70E8
:1009330022EF14601614600D147018D2FBD2FAD291
:10094300F9C2F8800ED2FBD2FA8004D2FBC2FAC2FB
:10095300F9C2F8D2FE20FEFD90AB8EE0FEA3E0FFCD
:10096300EE6003020A66EF146070146044146003BF
:10097300020A6690AB8BE0FBA3E475F001120C470F
:10098300A9F0FAE5FA120BA890AB8BE0FBA3E47590
:10099300F001120C47A9F0FAE5FB120BA890AB8B00
:1009A300E0FBA3E475F001120C47A9F0FAE5FC8023
:1009B3003B90AB8BE0FBA3E475F001120C47A9F06D
:1009C300FAE5FA120BA890AB8BE0FBA3E475F001F8
:1009D300120C47A9F0FAE5FB801290AB8BE0FBA366
:1009E300E475F001120C47A9F0FAE5FA120BA8809E
:1009F30072D2FBD2FAD2F9D2F8D2FE20FEFD90AB2E
:100A03008BE0FBA3E475F001120C47A9F0FAE5FAB9
:100A1300120BA890AB8BE0FBA3E475F001120C471B
:100A2300A9F0FAE5FB120BA890AB8BE0FBA3E475EE
:100A3300F001120C47A9F0FAE5FC120BA890AB8B5E
:100A4300E0FBA3E475F001120C47A9F0FAE5FD12EF
:100A53000BA890AB8FE024FCF090AB8EE034FFF05A
:080A6300020917E4F5F8D2AF17
:010A6B002268
:0F05D70090AB8BEBF0A3EAF0A3E9F0AD07AC0615
:1005E60090AB8BE0FBA3E0FAA3E04A4B7003020852
:1005F60023A3E0FEA3E0FF4E7003020823EEC3131D
:10060600FEEF132DFFEE3CFED3EF94FEEE94FF407B
:1006160003020823C2AFED5401FBECC313FCED1338
:10062600FDAE047810CEC313CE13D8F9F5F1ECF570
:10063600F2AF058FF3E4F5F875F401D2FF30FCFD57
:10064600C2FDEB6401707C90AB8EE0FEA3E0FF641C
:10065600014E700AC2FBC2FAD2F9C2F88008C2FB88
:10066600C2FAD2F9D2F8EF64014E90AB8B701AE061
:10067600FBA3E475F001120C47A9F0FA120B62F520
:10068600FC90AB8FE024FF802DE0FBA3E475F00126
:10069600120C47A9F0FA120B62F5FC90AB8BE0FB4B
:1006A600A3E475F001120C47A9F0FA120B62F5FDEE
:1006B60090AB8FE024FEF090AB8EE034FFF0D2FEDC
:1006C60020FEFD90AB8EE0FEA3E0FF4E7003020815
:1006D6001EC3EF9404EE940040030207ACEE7022B2
:1006E600EF14601614600D147018D2FBD2FAD2F90A
:1006F600C2F8800ED2FBD2FA8004D2FBC2FAC2F94B
:10070600C2F890AB8EE0FEA3E0FFEE60030207A501
:10071600EF1460761460471460030207A590AB8B54
:10072600E0FBA3E475F001120C47A9F0FA120B6284
:10073600F5FA90AB8BE0FBA3E475F001120C47A928
:10074600F0FA120B62F5FB90AB8BE0FBA3E475F0BD
:1007560001120C47A9F0FA120B62F5FC804190AB2E
:100766008BE0FBA3E475F001120C47A9F0FA120B1B
:1007760062F5FA90AB8BE0FBA3E475F001120C472F
:10078600A9F0FA120B62F5FB801590AB8BE0FBA388
:10079600E475F001120C47A9F0FA120B62F5FAD2D1
:1007A600FE30FE7480FBD2FBD2FAD2F9D2F890ABBF
:1007B6008BE0FBA3E475F001120C47A9F0FA120BCB
:1007C60062F5FA90AB8BE0FBA3E475F001120C47DF
:1007D600A9F0FA120B62F5FB90AB8BE0FBA3E47574
:1007E600F001120C47A9F0FA120B62F5FC90AB8BE4
:1007F600E0FBA3E475F001120C47A9F0FA120B62B4
:10080600F5FDD2FE20FEFD90AB8FE024FCF090AB10
:0D0816008EE034FFF00206C9E4F5F8D2AF21
:0108230022B2
:1001000041808000428082000041808100428084E2
:0C01100000004280860000428088000051
:10002E0043B71043C940E4908080F0908082F0A3E3
:10003E00F075D88075985053877F75BA0375AAE40A
:05004E00D29CD2AC229F
:0E1BDC00908080E0640160F87401F08F99221F
:1019940090AB7BEBF0A3EAF0A3E9F090AB7BE0FB28
:1019A400A3E0FAA3E04A4B6027ED6024AF051DEFE6
:1019B400601E90AB7BE0FBA3E0FAA3E0F9120B629C
:1019C400FF121BDC90AB7CE475F001120C3180DC5F
:0119D40022F0
:030023000215D3F0
:1015D300C0E0C0F0C083C082C0D075D000C000C0DE
:0D15E30001C002C003C004C005C006C0075F
:1015F00090AB90E4F0C2AF30981BE599F0121C500C
:10160000E4B50707EEB4080312186990AB90E0FF49
:101610001218B8C298309907C299908080E4F0D22D
:01162000AF1A
:10162100D007D006D005D004D003D002D001D0001D
:0B163100D0D0D082D083D0F0D0E032C7
:101B200043B7C043C920E4908081F0908084F0A343
:0E1B3000F0759BD075BB03759DC8759A012298
:0E1BEA00908081E0640160F87401F08F9C220D
:1019D50090ABCAEBF0A3EAF0A3E9F090ABCAE0FB49
:1019E500A3E0FAA3E04A4B6027ED6024AF051DEFA5
:1019F500601E90ABCAE0FBA3E0FAA3E0F9120B620C
:101A0500FF121BEA90ABCBE475F001120C3180DCC0
:011A150022AE
:0300830002163C26
:0F163C00C0E0C083C082C0D075D000C004C0071A
:10164B00C2AFE59B30E028AF9C908084E0FCA3E028
:10165B00242AF58274A03CF583EFF0908085E0049A
:10166B00F07006908084E004F0539BFE539BFEE5E4
:10167B009B30E10B539BFD539BFD908081E4F0432A
:04168B00C901D2AF10
:0D168F00D007D004D0D0D082D083D0E0327C
:10006E00E4908086F0A3F0759680759780F5D9752B
:05007E00E7E0D2BB2207
:0B1C1E008F9EE59630E0FB5396FE22FF
:101A160090ABCDEBF0A3EAF0A3E9F090ABCDE0FB01
:101A2600A3E0FAA3E04A4B6027ED6024AF051DEF63
:101A3600601E90ABCDE0FBA3E0FAA3E0F9120B62C7
:101A4600FF121C1E90ABCEE475F001120C3180DC47
:011A5600226D
:030053000200594F
:010059003274
:03005B0002169CEE
:0F169C00C0E0C083C082C0D075D000C004C007BA
:1016AB00C2AFE59730E038AF9F908086E0FCA3E0B7
:1016BB0024AAF58274A03CF583EFF0908087E004B8
:1016CB00F07006908086E004F05397FEC3908087FD
:1016DB00E09480908086E094004004E4F0A3F04313
:0416EB00C901D2AFB0
:0D16EF00D007D004D0D0D082D083D0E0321C
:101B6C00E4908088F0A3F075A78075AB80F5AE7516
:051B7C00AFE0D2BD2224
:0B1C29008FACE5A730E0FB53A7FE22C4
:101A570090ABD0EBF0A3EAF0A3E9F090ABD0E0FBBA
:101A6700A3E0FAA3E04A4B6027ED6024AF051DEF22
:101A7700601E90ABD0E0FBA3E0FAA3E0F9120B6283
:101A8700FF121C2990ABD1E475F001120C3180DCF8
:011A9700222C
:0300630002005A3E
:01005A003273
:03006B000216FC7E
:0F16FC00C0E0C083C082C0D075D000C004C0075A
:10170B00C2AFE5AB30E038AFAD908088E0FCA3E032
:10171B002400F58274803CF583EFF0908089E0041F
:10172B00F07006908088E004F053ABFEC390808984
:10173B00E09480908088E094004004E4F0A3F043B0
:04174B00C901D2AF4F
:0D174F00D007D004D0D0D082D083D0E032BB
:0300560002002E77
:101BCC000000000000000000000000000000000009
:10127A0090AB36EEF0A3EFF0A3ECF0A3EDF0A3EA07
:04128A00F0A3EBF0F2
:10128E00783C7CAB7D017BFF7A1B79CC7E007F089E
:10129E00120B3C90AB3C745AF090AB36E0FCA3E0E2
:1012AE00FDAE047810CEC313CE13D8F990AB3DF03B
:1012BE00ECA3F090AB36A3E090AB3FF090AB38E0F0
:1012CE00FCA3E0FDEC90AB40F0A3EDF090AB3AE068
:1012DE00FCA3E0FDEC90AB42F0A3EDF07B017AAB0A
:1012EE00793C90AB8EE4F0A37408F0FF7E001205FB
:1012FE00D77F057E00121AE17B017AAB793C90AB69
:10130E008EE4F0A304F07F087E0012082490AB3C1C
:03131E00E070DE9E
:0113210022A9
:1013220090AB7BEEF0A3EFF0A3ECF0A3EDF0A3EA19
:04133200F0A3EBF049
:1013360078817CAB7D017BFF7A1B79D47E007F08A8
:10134600120B3C90AB8174A5F090AB7BE0FCA3E064
:10135600FDAE047810CEC313CE13D8F990AB82F04D
:10136600ECA3F090AB7BA3E090AB84F090AB7DE078
:10137600FCA3E0FDEC90AB85F0A3EDF090AB7FE035
:10138600FCA3E0FDEC90AB87F0A3EDF07B017AAB1C
:10139600798190AB8EE4F0A37408F0FF7E0012050D
:1013A600D77F057E00121AE17B017AAB798190AB7B
:1013B6008EE4F0A304F07F087E0012082490AB812F
:0313C600E070DEF6
:0113C9002201
:0F011C0042ABBC000042ABBE000042ABBA0000D9
:0E1BF800438901758CBC758ACDD2A9D28C228E
:03000B0002175C7D
:10175C00C0E0C083C082C0D0C2AF758CBC758ACDCE
:10176C0090ABBDE004F0700690ABBCE004F0D390FD
:10177C00ABBDE094E890ABBCE094034020E4F0A354
:10178C00F090ABBFE004F0700690ABBEE004F090BC
:10179C00ABBBE004F0700690ABBAE004F043C901B7
:0B17AC00D2AFD0D0D082D083D0E0328A
:101B950075C870E4F5CDF5CC75CBBC75CACD43A839
:041BA50020D2C82260
:03002B0002005E72
:03005E00C2C632E5
:01006100227C
:10012B006100A93100C1814001C0804101C0804103
:10013B0000C1814001C0804100C1814000C18140AC
:10014B0001C0804101C0804100C1814000C181409C
:10015B0001C0804100C1814001C0804101C080418C
:10016B0000C1814001C0804100C1814000C181407C
:10017B0001C0804100C1814001C0804101C080416C
:10018B0000C1814000C1814001C0804101C080415C
:10019B0000C1814001C0804100C1814000C181404C
:1001AB0001C0804101C0804100C1814000C181403C
:1001BB0001C0804100C1814001C0804101C080412C
:1001CB0000C1814000C1814001C0804101C080411C
:1001DB0000C1814001C0804100C1814000C181400C
:1001EB0001C0804100C1814001C0804101C08041FC
:1001FB0000C1814001C0804100C1814000C18140EC
:10020B0001C0804101C0804100C1814000C18140DB
:10021B0001C0804100C1814001C0804101C08041CB
:10022B0000C181406100AA3100C0C101C30302C2F9
:10023B00C60607C705C5C404CC0C0DCD0FCFCE0E1B
:10024B000ACACB0BC90908C8D81819D91BDBDA1A8B
:10025B001EDEDF1FDD1D1CDC14D4D515D71716D6FB
:10026B00D21213D311D1D010F03031F133F3F2326B
:10027B0036F6F737F53534F43CFCFD3DFF3F3EFEDB
:10028B00FA3A3BFB39F9F83828E8E929EB2B2AEA4B
:10029B00EE2E2FEF2DEDEC2CE42425E527E7E626BB
:1002AB0022E2E323E12120E0A06061A163A3A2622B
:1002BB0066A6A767A56564A46CACAD6DAF6F6EAE9B
:1002CB00AA6A6BAB69A9A86878B8B979BB7B7ABA0B
:1002DB00BE7E7FBF7DBDBC7CB47475B577B7B6767B
:1002EB0072B2B373B17170B05090915193535292EB
:1002FB0096565797559594549C5C5D9D5F9F9E5E5B
:10030B005A9A9B5B99595898884849894B8B8A4ACA
:10031B004E8E8F4F8D4D4C8C44848545874746863A
:08032B008242438341818040BE
:1017B70090ABC5EBF0A3EAF0A3E9F0A3ECF0A3ED3F
:0117C700F031
:1017C8007FFF7DFF90ABC874FFF5F0120C4745F022
:1017D800603190ABC5E0FBA3E475F001120C47A99A
:1017E800F0FA120B626DFB7A002431F582EA34A913
:1017F800F583E06FFD74312BF582EA34AAF583E0B6
:07180800FF80C1EFFEEDFFC0
:01180F0022B6
:101B010090A12AE064016016E490A12DF0A3F0A356
:0F1B1100F0A3F090A12BF0A3F090A12A04F022F2
:1018690090A12BE07002A3E070037FFF2290A12FCB
:10187900E0FEA3E02431F58274A13EF583E0FF90F8
:10188900A130E004F0700690A12FE004F090A12FA0
:10189900E0B4080CA3E0B40007E490A12FF0A3F092
:0E18A90090A12CE024FFF090A12BE034FFF082
:0118B700220E
:1018B80090A12BE064087002A3E0604190A12DE0A4
:1018C800FCA3E02431F58274A13CF583EFF090A1EC
:1018D8002EE004F0700690A12DE004F090A12DE018
:1018E800B4080CA3E0B40007E490A12DF0A3F09095
:0E18F800A12CE004F0700690A12BE004F02279
:0D00160074312FF582E434A1F583E0FF2260
:101BA900E490A12DF0A3F0A3F0A3F090A12BF0A352
:021BB900F02218
:091C3E0090A12FE0FEA3E0FF22BB
:091C470090A12DE0FEA3E0FF22B4
:091C500090A12BE0FEA3E0FF22AD
:061C650000000000000079
:0C1C1200121C6BEF6401600312146B22C3
:100C8A00121C6BEF700F121C50C3EF9409EE940004
:100C9A005003020DC9121C6BEF60077FC87E001259
:100CAA001AE1120DCA90AB31EEF0A3EFF0121C6BF1
:100CBA00EF602D121C5090ABAFE0FDC3EF9DEE9498
:100CCA0000501D7B017AAB7991E012199490ABB177
:100CDA00E004F0E0D394054007E490ABB0F0A3F051
:0F0CEA0090AB31E0F47003A3E0F46003020D77E8
:100CF900121C5090AB33EEF0A3EFF0121C50C3EF6F
:100D09009409EE94005003020DC97F327E00121A35
:100D1900E1121C5090AB33E06E7003A3E06F6003E7
:030D2900020DC9EF
:100D2C0090AB35F0A3F090AB33E0FEA3E0FFC390A3
:100D3C00AB36E09F90AB35E09E502512186990AB16
:100D4C0035E0FCA3E02437F58274AB3CF583EFF07F
:100D5C0090AB36E004F070CE90AB35E004F080C67A
:090D6C007B017AAB793790AB33BF
:020D7500804AB2
:100D7700E490AB33F0A3F090AB31E0FEA3E0FFC308
:100D870090AB34E09F90AB33E09E502512186990EA
:100D9700AB33E0FCA3E02435F58274AB3CF583EF7D
:100DA700F090AB34E004F070CE90AB33E004F08009
:100DB700C67B017AAB793590AB31E0FCA3E0FD123D
:020DC700036DBA
:010DC9002207
:1011170078317CAB7D017BFF7A1C79657E007F028D
:10112700120B3C7B027A007D007C51E4FFFE121219
:101137007A7B017AAB793190AB8EE4F0A37402F03D
:101147007F007E5112082490AB31E0FFC4131313C4
:10115700540190AB33F0EF547FFFA3F090AB32E034
:1011670090AB35F0FDEFFEEDFBAA067C007D0AFF94
:10117700120BDC90AB34EFF0AE02AF037C007D0ABC
:10118700120BDCA3EDF07B017AAB793390AB8EE4E5
:10119700F0A304F07F107E511205D77B017AAB795B
:1011A7003490AB8EE4F0A304F07F207E511205D774
:1011B7007B017AAB793590AB8EE4F0A304F07F30F6
:0511C7007E510205D776
:1000860078317CAB7D017BFF7A1C79677E007F022D
:10009600120B3C7B027A007D007C527F027E0012AE
:1000A600127A7B017AAB793190AB8EE4F0A37402BD
:1000B600F07F007E5212082490AB31E090AB33F013
:1000C60090AB32E090AB34F07B017AAB793390ABF6
:1000D6008EE4F0A304F07F107E521205D77B017ADE
:1000E600AB793490AB8EE4F0A304F07F207E52020D
:0200F60005D72C
:061C5900121117020086C3
:1015610078317CAB7D017BFF7A1C79697E007F023B
:10157100120B3C7B027A007D007C537F047E0012BB
:10158100127A7B017AAB793190AB8EE4F0A37402CD
:10159100F07F007E5312082490AB31E090AB33F022
:1015A10090AB32E090AB34F07B017AAB793390AB06
:1015B1008EE4F0A304F07F107E531205D77B017AED
:1015C100AB793490AB8EE4F0A304F07F207E53021C
:0215D10005D73C
:061C5F00121C5902156180
:01006200227B
:0B19060090AB53EBF0A3EAF0A3E9F074
:10191100E4FFFED390AB5AE09F90AB59E09E402D7F
:1019210090AB56E0FBA3E0FAA3E0F98F828E83121D
:101931000B7BFD90AB53E0FBA3E0FAA3E0F98F82B0
:0D1941008E83ED120BBA0FBF00010E80C6A1
:01194E002276
:1018100000000000000000000000000000000000C8
:1018200000000000000000000000000000000000B8
:1018300000000000000000000000000000000000A8
:101840000000000000000000000000000000000098
:101850000000000000000000000000000000000088
:091860000000000000000000007F
:1003330042ABB6000042ABB8000042ABB200004291
:10034300ABB400006021AB9100000000000000008E
:10035300000000000000000000000000000000009A
:0903630000000000000000000091
:0B194F0090AB80EBF0A3EAF0A3E9F0FE
:10195A00E4FEA3F0A3F07F0290AB80E0FBA3E0FAE1
:10196A00A3E0F98F828E83120B7BFD90AB84E02D6E
:10197A00F090AB83E03400F00FBF00010EEF640774
:09198A004E70D590AB83A3E0FF81
:011993002231
:061C6B0090ABB0E0FF2287
:080EF40090AB31EFF0A3EDF02B
:100EFC0078337CAB7D017BFF7A1879107E007F1EE6
:100F0C00120B3CE490AB51F0A3F090AB3374AAF00D
:100F1C0090AB52E004F0700690AB51E004F090AB53
:100F2C003474AAF090AB52E004F0700690AB51E030
:100F3C0004F090AB3574FAF090AB52E004F070060C
:100F4C0090AB51E004F090AB367401F090AB52E0F2
:100F5C0004F0700690AB51E004F090AB377420F0C5
:100F6C0090AB52E004F0700690AB51E004F0E490CA
:100F7C00AB38F090AB52E004F0700690AB51E0044B
:100F8C00F090AB397401F090AB52E004F070069025
:100F9C00AB51E004F090AB31E090AB3AF090AB5237
:100FAC00E004F0700690AB51E004F07B017AAB7971
:100FBC003312194F90AB3BEFF090AB52E004F07052
:100FCC000690AB51E004F090AB567401F0A374ABF7
:100FDC00F0A37433F090AB51E0FFA3E090AB59CF8A
:100FEC00F0A3EFF07B017AAB799112190690AB511B
:100FFC00A3E090ABAFF090AB32E090ABB0F07B01E4
:0C100C007AAB799190ABAFE0FD02199433
:0A1C3400900001120B7BFF020EF47A
:10146B007B017AAB79B290AB8EE4F0A37402F07F80
:10147B00007E5012082490ABB3E060217B017AAB65
:10148B0079B27D01121C347B017AAB79B690AB8EAD
:10149B00E4F0A37402F07F007E501205D77B017A33
:1014AB00AB79B490AB8EE4F0A37402F07F007E6056
:1014BB0012082490ABB4E07004A3E0602112101862
:1014CB00E490ABB5F090ABB4F07B017AAB79B49010
:0F14DB00AB8EF0A37402F07F007E601205D72263
:100DCA00E490AB55F0A3F0A3F0A3F0121C3E90AB55
:100DDA005FEEF0A3EFF0121C5090AB55E0FCA3E0DD
:100DEA00D39FEC9E4003020EEF90AB5FE0FAA3E0C4
:100DFA00FB90AB57E0FCA3E0FDEB2DFFEA3CFEA322
:100E0A00F0A3EFF02401FFE43EA3F0A3EFF0EB2DF3
:100E1A00FFEA3CCF2402CF3400A3F0A3EFF090AB5B
:100E2A0059E0FEA3E0D394FFEE9407400BE02400C0
:100E3A00F090AB59E034F8F090AB5BE0FEA3E0D35E
:100E4A0094FFEE9407400BE02400F090AB5BE03493
:100E5A00F8F090AB59E0FEA3E0FFD394FFEE9407BD
:100E6A00400E90AB5EE02400F090AB5DE034F8F009
:100E7A00120016EF64AA703790AB5BA3E0FF120072
:100E8A0016BFAA2B90AB5DA3E0FF120016BFFA1F94
:100E9A0090AB5FE0FEA3E0FF90AB59E0FCA3E06FEC
:100EAA007002EC6E600990AB57E0FEA3E0FF22905F
:100EBA00AB58E004F0700690AB57E004F090AB56E4
:100ECA00E004F0700690AB55E004F090AB57E0FEFA
:100EDA00A3E07003EE64086003020DE090AB57F0E4
:090EEA00A3F0020DE07EFF7FFF82
:010EF30022DC
:1014EA0090AB55E0FBA3E0FAA3E0F9A3E0FCA3E08C
:0114FA00FDF4
:1014FB0090AB7EECF0A3EDF090AB7BEBF0A3EAF0BE
:10150B00A3E9F0120B6264AA704890AB7BE0FBA3DB
:10151B00E0FAA3E0F9900001120B7B64AA70339000
:10152B000002120B7BB4F52A12194F90AB7BE0FB38
:10153B00A3E0FAA3E0F990AB7FE024FFFD90AB7E34
:10154B00E034FF8D82F583120B7BB507057E007FA0
:06155B000122E4FEFF2264
:0B11CC0090AB7BEBF0A3EAF0A3E9F08E
:1011D700E490AB83F0A3F090AB7EE0FBA3E0FAA32F
:1011E700E0F9900006120B7BFF90AB7BE0FBA3E0DE
:1011F700FAA3E0F9EF120BA890AB81E4F0A3740710
:10120700F090AB7EE0FBA3E0FAA3E0F990000612B2
:101217000B7B2407FFE433FE90AB81E0FCA3E0FDEA
:10122700C39FEE6480F8EC64809850468D828C836F
:10123700120B7BFF90AB7BE0FBA3E0FAA3E024015A
:10124700F9E43AFA90AB83E0FCA3E029F9EA3CFA27
:10125700EF120BA890AB84E004F0700690AB83E02C
:1012670004F090AB82E004F0709790AB81E004F05B
:02127700808F66
:011279002252
:10036D0090AB58ECF0A3EDF090AB55EBF0A3EAF0A9
:03037D00A3E9F001
:10038000900004120B7BFE900005120B7BFDEDFF2D
:1003900090AB5AEEF0A3EFF0785C7CAB7D017BFF75
:1003A0007A18792E7E007F17120B3C121C6BEF70AF
:0403B0000302044BF5
:1003B40090AB95E0FEA3E0FDEDFF90AB73EEF0A3F0
:1003C400EFF01214EAEF4E701F7B017AAB79919033
:1003D400ABAFE0FD12199490ABB1E004F0E0D3941C
:1003E4000550030205D6805790AB5AE0FEA3E0FF08
:1003F40090AB73E0B5062BA3E0B5072690AB55E0B0
:10040400FBA3E0FAA3E0F9900003120B7B701390B6
:10041400ABAFE0FF90AB58E0B40007A3E0B5070230
:10042400801D7B017AAB799190ABAFE0FD121994FA
:1004340090ABB1E004F0E0D3940550030205D6E498
:0704440090ABB0F0A3F02221
:10044B0078757CAB7D017BFF7A1879457E007F0246
:10045B00120B3C78777CAB7D017BFF7A1879477E5A
:10046B00007F02120B3C78797CAB7D017BFF7A1805
:10047B0079497E007F02120B3C1214EAEF4E700397
:10048B000205D690AB55E0FBA3E0FAA3E0F9900090
:10049B0003120B7B6401703B90000274FA120BBACF
:1004AB00900003E4120BBA12194F90AB55E0FBA36B
:1004BB00E0FAA3E0F990AB59E024FFFD90AB58E0D4
:1004CB0034FF8D82F583EF120BBA90AB58A3E0FD8E
:1004DB0012199490AB55E0F9A3E0FAA3E090AB7E30
:1004EB00C9F0A3EAF0A3E9F07B017AAB795C1211B6
:1004FB00CC90AB5AE0FEA3E08EF0120C5D051420FD
:10050B001005A12020000005D690AB5FE0FEA3E014
:10051B00FDEDFF90AB73EEF0A3EFF090AB5DE090D1
:10052B00AB77F090AB5EE090AB78F090AB73E0FA0A
:10053B00A3E0FB7C007D0AFFAE02120BDC90AB79D3
:10054B00EFF07C007D0AAF03AE02120BDCA3EDF0E3
:10055B007B017AAB797790AB8EE4F0A37402F07FDA
:10056B00007E511205D77B027A007D007C51E4FF9F
:10057B00FE1213227B017AAB797990AB8EE4F0A358
:10058B007402F07F007E521205D77B027A007D0049
:10059B007C527F02803090AB5DE090AB75F090ABFE
:1005AB005EE090AB76F07B017AAB797590AB8EE425
:1005BB00F0A37402F07F007E531205D77B027A0002
:0B05CB007D007C537F047E0012132291
:0105D6002202
:1010180078317CAB7D017BFF7A18794B7E007F1E8F
:10102800120B3CE490AB4FF0A3F090AB3174AAF0F4
:1010380090AB50E004F0700690AB4FE004F090AB3A
:101048003274AAF090AB50E004F0700690AB4FE019
:1010580004F090AB3374FAF090AB50E004F07006F3
:1010680090AB4FE004F090AB347401F090AB50E0DB
:1010780004F0700690AB4FE004F0E490AB35F090CC
:10108800AB50E004F0700690AB4FE004F0E490AB96
:1010980036F090AB50E004F0700690AB4FE004F0EF
:1010A800E490AB37F090AB50E004F0700690AB4F93
:1010B800E004F07B017AAB793112194F90AB39EF2C
:1010C800F090AB50E004F0700690AB4FE004F09065
:1010D800AB567401F0A374ABF0A37431F090AB4F2E
:1010E800E0FFA3E090AB59CFF0A3EFF07B017AAB20
:1010F800799112190690AB4FA3E090ABAFF0A374AF
:0F11080001F0FB7AAB799190ABAFE0FD02199447
:1013EB00021B81E493A3F8E493A34003F68001F27C
:1013FB0008DFF48029E493A3F85407240CC8C33303
:10140B00C4540F4420C8834004F456800146F6DFD1
:10141B00E4800B0102040810204080900100E47E60
:10142B00019360BCA3FF543F30E509541FFEE493C6
:10143B00A360010ECF54C025E060A840B8E493A38D
:10144B00FAE493A3F8E493A3C8C582C8CAC583CAB8
:10145B00F0A3C8C582C8CAC583CADFE9DEE780BE70
:01036C000090
:100A6C00E709F608DFFA8046E709F208DFFA803E6C
:100A7C0088828C83E709F0A3DFFA8032E309F60859
:100A8C00DFFA8078E309F208DFFA807088828C83C1
:100A9C00E309F0A3DFFA806489828A83E0A3F60875
:100AAC00DFFA805889828A83E0A3F208DFFA804C4F
:100ABC0080D280FA80C680D4806980F28033801026
:100ACC0080A680EA809A80A880DA80E280CA80338F
:100ADC0089828A83ECFAE493A3C8C582C8CCC58307
:100AEC00CCF0A3C8C582C8CCC583CCDFE9DEE780D7
:100AFC000D89828A83E493A3F608DFF9ECFAA9F056
:100B0C00EDFB2289828A83ECFAE0A3C8C582C8CCAB
:100B1C00C583CCF0A3C8C582C8CCC583CCDFEADEC4
:100B2C00E880DB89828A83E493A3F208DFF980CC26
:100B3C0088F0EF60010E4E60C388F0ED2402B4041F
:100B4C000050B9F582EB2402B4040050AF232345C6
:060B5C008223900ABC7325
:100B6200BB010689828A83E0225002E722BBFE0291
:090B7200E32289828A83E49322C4
:100B7B00BB010CE58229F582E5833AF583E022502F
:100B8B0006E92582F8E622BBFE06E92582F8E22279
:0D0B9B00E58229F582E5833AF583E4932293
:100BA800BB010689828A83F0225002F722BBFE012C
:020BB800F32226
:100BBA00F8BB010DE58229F582E5833AF583E8F071
:100BCA00225006E92582C8F622BBFE05E92582C81D
:020BDA00F22205
:100BDC00BC000BBE0029EF8DF084FFADF022E4CCFD
:100BEC00F875F008EF2FFFEE33FEEC33FCEE9DECC6
:100BFC00984005FCEE9DFE0FD5F0E9E4CEFD22ED0C
:100C0C00F8F5F0EE8420D21CFEADF075F008EF2F55
:100C1C00FFED33FD4007985006D5F0F222C398FD46
:050C2C000FD5F0EA22E3
:100C3100C5F0F8A3E028F0C5F0F8E582158270024E
:060C41001583E038F022EB
:100C4700A3F8E0C5F025F0F0E58215827002158360
:060C5700E0C838F0E822BD
:100C5D00D083D082F8E4937012740193700DA3A326
:100C6D0093F8740193F5828883E473740293B5F05D
:0D0C7D00067403936860E9A3A3A3A380D8C5
:00000001FF
